{
  "_format": "hh-sol-artifact-1",
  "contractName": "ERC20Permit2",
  "sourceName": "contracts/libraries/ERC20Permit2.sol",
  "abi": [
    {
      "inputs": [],
      "name": "Expired",
      "type": "error"
    },
    {
      "inputs": [],
      "name": "InvalidSignature",
      "type": "error"
    },
    {
      "anonymous": false,
      "inputs": [
        {
          "indexed": true,
          "internalType": "address",
          "name": "owner",
          "type": "address"
        },
        {
          "indexed": true,
          "internalType": "address",
          "name": "spender",
          "type": "address"
        },
        {
          "indexed": false,
          "internalType": "uint256",
          "name": "amount",
          "type": "uint256"
        }
      ],
      "name": "Approval",
      "type": "event"
    },
    {
      "anonymous": false,
      "inputs": [
        {
          "indexed": true,
          "internalType": "address",
          "name": "from",
          "type": "address"
        },
        {
          "indexed": true,
          "internalType": "address",
          "name": "to",
          "type": "address"
        },
        {
          "indexed": false,
          "internalType": "uint256",
          "name": "amount",
          "type": "uint256"
        }
      ],
      "name": "Transfer",
      "type": "event"
    },
    {
      "inputs": [],
      "name": "DOMAIN_SEPARATOR",
      "outputs": [
        {
          "internalType": "bytes32",
          "name": "",
          "type": "bytes32"
        }
      ],
      "stateMutability": "view",
      "type": "function"
    },
    {
      "inputs": [
        {
          "internalType": "address",
          "name": "",
          "type": "address"
        },
        {
          "internalType": "address",
          "name": "",
          "type": "address"
        }
      ],
      "name": "allowance",
      "outputs": [
        {
          "internalType": "uint256",
          "name": "",
          "type": "uint256"
        }
      ],
      "stateMutability": "view",
      "type": "function"
    },
    {
      "inputs": [
        {
          "internalType": "address",
          "name": "_spender",
          "type": "address"
        },
        {
          "internalType": "uint256",
          "name": "_amount",
          "type": "uint256"
        }
      ],
      "name": "approve",
      "outputs": [
        {
          "internalType": "bool",
          "name": "",
          "type": "bool"
        }
      ],
      "stateMutability": "nonpayable",
      "type": "function"
    },
    {
      "inputs": [
        {
          "internalType": "address",
          "name": "",
          "type": "address"
        }
      ],
      "name": "balanceOf",
      "outputs": [
        {
          "internalType": "uint256",
          "name": "",
          "type": "uint256"
        }
      ],
      "stateMutability": "view",
      "type": "function"
    },
    {
      "inputs": [],
      "name": "decimals",
      "outputs": [
        {
          "internalType": "uint8",
          "name": "",
          "type": "uint8"
        }
      ],
      "stateMutability": "view",
      "type": "function"
    },
    {
      "inputs": [],
      "name": "name",
      "outputs": [
        {
          "internalType": "string",
          "name": "",
          "type": "string"
        }
      ],
      "stateMutability": "view",
      "type": "function"
    },
    {
      "inputs": [
        {
          "internalType": "address",
          "name": "",
          "type": "address"
        }
      ],
      "name": "nonces",
      "outputs": [
        {
          "internalType": "uint256",
          "name": "",
          "type": "uint256"
        }
      ],
      "stateMutability": "view",
      "type": "function"
    },
    {
      "inputs": [
        {
          "internalType": "address",
          "name": "_owner",
          "type": "address"
        },
        {
          "internalType": "address",
          "name": "_spender",
          "type": "address"
        },
        {
          "internalType": "uint256",
          "name": "_amount",
          "type": "uint256"
        },
        {
          "internalType": "uint256",
          "name": "_deadline",
          "type": "uint256"
        },
        {
          "internalType": "uint8",
          "name": "_v",
          "type": "uint8"
        },
        {
          "internalType": "bytes32",
          "name": "_r",
          "type": "bytes32"
        },
        {
          "internalType": "bytes32",
          "name": "_s",
          "type": "bytes32"
        }
      ],
      "name": "permit",
      "outputs": [],
      "stateMutability": "nonpayable",
      "type": "function"
    },
    {
      "inputs": [
        {
          "internalType": "address",
          "name": "_owner",
          "type": "address"
        },
        {
          "internalType": "address",
          "name": "_spender",
          "type": "address"
        },
        {
          "internalType": "uint256",
          "name": "_amount",
          "type": "uint256"
        },
        {
          "internalType": "uint256",
          "name": "_deadline",
          "type": "uint256"
        },
        {
          "internalType": "bytes",
          "name": "_signature",
          "type": "bytes"
        }
      ],
      "name": "permit2",
      "outputs": [],
      "stateMutability": "nonpayable",
      "type": "function"
    },
    {
      "inputs": [
        {
          "internalType": "bytes4",
          "name": "interfaceID",
          "type": "bytes4"
        }
      ],
      "name": "supportsInterface",
      "outputs": [
        {
          "internalType": "bool",
          "name": "",
          "type": "bool"
        }
      ],
      "stateMutability": "pure",
      "type": "function"
    },
    {
      "inputs": [],
      "name": "symbol",
      "outputs": [
        {
          "internalType": "string",
          "name": "",
          "type": "string"
        }
      ],
      "stateMutability": "view",
      "type": "function"
    },
    {
      "inputs": [],
      "name": "totalSupply",
      "outputs": [
        {
          "internalType": "uint256",
          "name": "",
          "type": "uint256"
        }
      ],
      "stateMutability": "view",
      "type": "function"
    },
    {
      "inputs": [
        {
          "internalType": "address",
          "name": "_to",
          "type": "address"
        },
        {
          "internalType": "uint256",
          "name": "_amount",
          "type": "uint256"
        }
      ],
      "name": "transfer",
      "outputs": [
        {
          "internalType": "bool",
          "name": "",
          "type": "bool"
        }
      ],
      "stateMutability": "nonpayable",
      "type": "function"
    },
    {
      "inputs": [
        {
          "internalType": "address",
          "name": "_from",
          "type": "address"
        },
        {
          "internalType": "address",
          "name": "_to",
          "type": "address"
        },
        {
          "internalType": "uint256",
          "name": "_amount",
          "type": "uint256"
        }
      ],
      "name": "transferFrom",
      "outputs": [
        {
          "internalType": "bool",
          "name": "",
          "type": "bool"
        }
      ],
      "stateMutability": "nonpayable",
      "type": "function"
    }
  ],
  "bytecode": "0x60a0604052601260805234801561001557600080fd5b506080516110a9610031600039600061018301526110a96000f3fe608060405234801561001057600080fd5b50600436106100ea5760003560e01c80633644e5151161008c57806395d89b411161006657806395d89b41146101fa578063a9059cbb14610202578063d505accf14610215578063dd62ed3e1461022857600080fd5b80633644e515146101b257806370a08231146101ba5780637ecebe00146101da57600080fd5b806318160ddd116100c857806318160ddd1461014057806323b872dd146101565780632c0198cc14610169578063313ce5671461017e57600080fd5b806301ffc9a7146100ef57806306fdde0314610118578063095ea7b31461012d575b600080fd5b6101026100fd366004610a36565b610253565b60405161010f9190610a69565b60405180910390f35b6101206102a5565b60405161010f9190610ad9565b61010261013b366004610b20565b610333565b61014960005481565b60405161010f9190610b63565b610102610164366004610b71565b610349565b61017c610177366004610c13565b61043b565b005b6101a57f000000000000000000000000000000000000000000000000000000000000000081565b60405161010f9190610cb2565b6101496104e0565b6101496101c8366004610cc0565b60016020526000908152604090205481565b6101496101e8366004610cc0565b60036020526000908152604090205481565b6101206104ff565b610102610210366004610b20565b61050c565b61017c610223366004610cf5565b610593565b610149610236366004610d94565b600260209081526000928352604080842090915290825290205481565b60006001600160e01b031982166301ffc9a760e01b148061028457506001600160e01b0319821663d505accf60e01b145b8061029f57506001600160e01b03198216630b00663360e21b145b92915050565b600480546102b290610ddd565b80601f01602080910402602001604051908101604052809291908181526020018280546102de90610ddd565b801561032b5780601f106103005761010080835404028352916020019161032b565b820191906000526020600020905b81548152906001019060200180831161030e57829003601f168201915b505050505081565b6000610340338484610688565b50600192915050565b6001600160a01b038316600090815260026020908152604080832033845290915281205460001981146103a5576103808382610e1f565b6001600160a01b03861660009081526002602090815260408083203384529091529020555b6001600160a01b038516600090815260016020526040812080548592906103cd908490610e1f565b90915550506001600160a01b03808516600081815260016020526040908190208054870190555190918716907fddf252ad1be2c89b69c2b068fc378daa952ba7f163c4a11628f55a4df523b3ef90610426908790610b63565b60405180910390a360019150505b9392505050565b828042111561045d57604051630407b05b60e31b815260040160405180910390fd5b600061046b888888886106f0565b90506104ae888286868080601f0160208091040260200160405190810160405280939291908181526020018383808284376000920191909152506107a992505050565b6104cb57604051638baa579f60e01b815260040160405180910390fd5b6104d6888888610688565b5050505050505050565b600060065446146104f8576104f36108d5565b905090565b5060075490565b600580546102b290610ddd565b3360009081526001602052604081208054839190839061052d908490610e1f565b90915550506001600160a01b038316600081815260016020526040908190208054850190555133907fddf252ad1be2c89b69c2b068fc378daa952ba7f163c4a11628f55a4df523b3ef90610582908690610b63565b60405180910390a350600192915050565b83804211156105b557604051630407b05b60e31b815260040160405180910390fd5b60006105c3898989896106f0565b90506000600182878787604051600081526020016040526040516105ea9493929190610e36565b6020604051602081039080840390855afa15801561060c573d6000803e3d6000fd5b505050602060405103519050896001600160a01b0316816001600160a01b03161461064a57604051638baa579f60e01b815260040160405180910390fd5b6001600160a01b03811661067157604051638baa579f60e01b815260040160405180910390fd5b61067c8a8a8a610688565b50505050505050505050565b6001600160a01b0380841660008181526002602090815260408083209487168084529490915290819020849055517f8c5be1e5ebec7d5bd14f71427d1e84f3dd0314c0f7b2291e5b200ac8c7c3b925906106e3908590610b63565b60405180910390a3505050565b60006106fa6104e0565b6001600160a01b038616600090815260036020526040812080547f6e71edae12b1b97f4d1f60370fef10105fa2faae0126114a169c64845d6126c99289928992899290919061074883610e74565b919050558760405160200161076296959493929190610e97565b60405160208183030381529060405280519060200120604051602001610789929190610ee9565b604051602081830303815290604052805190602001209050949350505050565b6000806107b6848461095e565b9050846001600160a01b0316816001600160a01b0316036107ea576001600160a01b038116156107ea576001915050610434565b600080866001600160a01b0316631626ba7e60e01b8787604051602401610812929190610f1a565b60408051601f198184030181529181526020820180516001600160e01b03166001600160e01b03199094169390931790925290516108509190610f5c565b600060405180830381855afa9150503d806000811461088b576040519150601f19603f3d011682016040523d82523d6000602084013e610890565b606091505b50915091508180156108a3575080516020145b80156108ca57508051630b135d3f60e11b906108c89083016020908101908401610f73565b145b979650505050505050565b60007f8b73c3c69bb8fe3d512ecc4cf759cc79239f7b179b0ffacaa9a75d522b39400f60046040516109079190611006565b60405190819003812061094392917fc89efdaa54c0f20c7adf612882df0950f5a951637e0307cdcb4c672f298b8bc69046903090602001611027565b60405160208183030381529060405280519060200120905090565b600081516041146109715750600061029f565b60208201516040830151606084015160001a7f7fffffffffffffffffffffffffffffff5d576e7357a4501ddfe92f46681b20a08211156109b7576000935050505061029f565b600186828585604051600081526020016040526040516109da9493929190610e36565b6020604051602081039080840390855afa1580156109fc573d6000803e3d6000fd5b5050604051601f190151979650505050505050565b6001600160e01b031981165b8114610a2857600080fd5b50565b803561029f81610a11565b600060208284031215610a4b57610a4b600080fd5b6000610a578484610a2b565b949350505050565b8015155b82525050565b6020810161029f8284610a5f565b60005b83811015610a92578181015183820152602001610a7a565b83811115610aa1576000848401525b50505050565b6000610ab1825190565b808452602084019350610ac8818560208601610a77565b601f01601f19169290920192915050565b602080825281016104348184610aa7565b60006001600160a01b03821661029f565b610a1d81610aea565b803561029f81610afb565b80610a1d565b803561029f81610b0f565b60008060408385031215610b3657610b36600080fd5b6000610b428585610b04565b9250506020610b5385828601610b15565b9150509250929050565b80610a63565b6020810161029f8284610b5d565b600080600060608486031215610b8957610b89600080fd5b6000610b958686610b04565b9350506020610ba686828701610b04565b9250506040610bb786828701610b15565b9150509250925092565b60008083601f840112610bd657610bd6600080fd5b50813567ffffffffffffffff811115610bf157610bf1600080fd5b602083019150836001820283011115610c0c57610c0c600080fd5b9250929050565b60008060008060008060a08789031215610c2f57610c2f600080fd5b6000610c3b8989610b04565b9650506020610c4c89828a01610b04565b9550506040610c5d89828a01610b15565b9450506060610c6e89828a01610b15565b935050608087013567ffffffffffffffff811115610c8e57610c8e600080fd5b610c9a89828a01610bc1565b92509250509295509295509295565b60ff8116610a63565b6020810161029f8284610ca9565b600060208284031215610cd557610cd5600080fd5b6000610a578484610b04565b60ff8116610a1d565b803561029f81610ce1565b600080600080600080600060e0888a031215610d1357610d13600080fd5b6000610d1f8a8a610b04565b9750506020610d308a828b01610b04565b9650506040610d418a828b01610b15565b9550506060610d528a828b01610b15565b9450506080610d638a828b01610cea565b93505060a0610d748a828b01610b15565b92505060c0610d858a828b01610b15565b91505092959891949750929550565b60008060408385031215610daa57610daa600080fd5b6000610db68585610b04565b9250506020610b5385828601610b04565b634e487b7160e01b600052602260045260246000fd5b600281046001821680610df157607f821691505b602082108103610e0357610e03610dc7565b50919050565b634e487b7160e01b600052601160045260246000fd5b600082821015610e3157610e31610e09565b500390565b60808101610e448287610b5d565b610e516020830186610ca9565b610e5e6040830185610b5d565b610e6b6060830184610b5d565b95945050505050565b60006000198203610e8757610e87610e09565b5060010190565b610a6381610aea565b60c08101610ea58289610b5d565b610eb26020830188610e8e565b610ebf6040830187610e8e565b610ecc6060830186610b5d565b610ed96080830185610b5d565b6108ca60a0830184610b5d565b90565b61190160f01b81526002016000610f008285610b5d565b602082019150610f108284610b5d565b5060200192915050565b60408101610f288285610b5d565b8181036020830152610a578184610aa7565b6000610f44825190565b610f52818560208601610a77565b9290920192915050565b60006104348284610f3a565b805161029f81610b0f565b600060208284031215610f8857610f88600080fd5b6000610a578484610f68565b60008154610fa181610ddd565b600182168015610fb85760018114610fcd57610ffd565b60ff1983168652811515820286019350610ffd565b60008581526020902060005b83811015610ff557815488820152600190910190602001610fd9565b838801955050505b50505092915050565b60006104348284610f94565b600061029f610ee68381565b610a6381611012565b60a08101611035828861101e565b6110426020830187610b5d565b61104f604083018661101e565b61105c6060830185610b5d565b6110696080830184610e8e565b969550505050505056fea2646970667358221220224fbaabc967d04202d2bbea3fa5de921fa3965c9de18b77168f9ed400ee1e0a64736f6c634300080f0033",
  "linkReferences": {},
  "deployedLinkReferences": {}
}