{
  "_format": "hh-sol-artifact-1",
  "contractName": "ForwarderRegistry",
  "sourceName": "contracts/master/ForwarderRegistry.sol",
  "abi": [
    {
      "anonymous": false,
      "inputs": [
        {
          "indexed": false,
          "internalType": "address",
          "name": "forwarder",
          "type": "address"
        }
      ],
      "name": "AddForwarder",
      "type": "event"
    },
    {
      "anonymous": false,
      "inputs": [
        {
          "indexed": true,
          "internalType": "address",
          "name": "previousOwner",
          "type": "address"
        },
        {
          "indexed": true,
          "internalType": "address",
          "name": "newOwner",
          "type": "address"
        }
      ],
      "name": "OwnershipTransferred",
      "type": "event"
    },
    {
      "anonymous": false,
      "inputs": [
        {
          "indexed": false,
          "internalType": "address",
          "name": "forwarder",
          "type": "address"
        }
      ],
      "name": "RemoveForwarder",
      "type": "event"
    },
    {
      "inputs": [
        {
          "internalType": "address",
          "name": "forwarder",
          "type": "address"
        }
      ],
      "name": "addForwarder",
      "outputs": [],
      "stateMutability": "nonpayable",
      "type": "function"
    },
    {
      "inputs": [
        {
          "internalType": "address",
          "name": "forwarder",
          "type": "address"
        }
      ],
      "name": "isForwarder",
      "outputs": [
        {
          "internalType": "bool",
          "name": "",
          "type": "bool"
        }
      ],
      "stateMutability": "view",
      "type": "function"
    },
    {
      "inputs": [],
      "name": "owner",
      "outputs": [
        {
          "internalType": "address",
          "name": "",
          "type": "address"
        }
      ],
      "stateMutability": "view",
      "type": "function"
    },
    {
      "inputs": [
        {
          "internalType": "address",
          "name": "forwarder",
          "type": "address"
        }
      ],
      "name": "removeForwarder",
      "outputs": [],
      "stateMutability": "nonpayable",
      "type": "function"
    },
    {
      "inputs": [],
      "name": "renounceOwnership",
      "outputs": [],
      "stateMutability": "nonpayable",
      "type": "function"
    },
    {
      "inputs": [
        {
          "internalType": "address",
          "name": "newOwner",
          "type": "address"
        }
      ],
      "name": "transferOwnership",
      "outputs": [],
      "stateMutability": "nonpayable",
      "type": "function"
    }
  ],
  "bytecode": "0x608060405234801561001057600080fd5b5061001a3361001f565b61006f565b600080546001600160a01b038381166001600160a01b0319831681178455604051919092169283917f8be0079c531659141344cd1fd0a4f28419497f9722a3daafe3b4186f6b6457e09190a35050565b6105298061007e6000396000f3fe608060405234801561001057600080fd5b50600436106100625760003560e01c80634d93172d146100675780635c41d2fe1461007c578063715018a61461008f5780638da5cb5b14610097578063abcef554146100b9578063f2fde38b146100f2575b600080fd5b61007a61007536600461036e565b610105565b005b61007a61008a36600461036e565b6101a9565b61007a610265565b6000546001600160a01b03166040516100b091906103a6565b60405180910390f35b6100e56100c736600461036e565b6001600160a01b031660009081526001602052604090205460ff1690565b6040516100b091906103bc565b61007a61010036600461036e565b610279565b61010d6102b3565b6001600160a01b03811660009081526001602052604090205460ff1661014e5760405162461bcd60e51b8152600401610145906103ed565b60405180910390fd5b6001600160a01b03811660009081526001602052604090819020805460ff19169055517f4bbec60f4341dc6a34ef4508cd72c0e9cbc132df5553681fc875a67403fa3dc09061019e9083906103a6565b60405180910390a150565b6101b16102b3565b6001600160a01b0381166101d75760405162461bcd60e51b815260040161014590610423565b6001600160a01b03811660009081526001602052604090205460ff16156102105760405162461bcd60e51b815260040161014590610457565b6001600160a01b038116600090815260016020819052604091829020805460ff19169091179055517f8667299a75160d72e8f7df4fe89bf635ef6f5e09cdffd80b7e5f0f4f639099bf9061019e9083906103a6565b61026d6102b3565b61027760006102ec565b565b6102816102b3565b6001600160a01b0381166102a75760405162461bcd60e51b815260040161014590610467565b6102b0816102ec565b50565b336102c66000546001600160a01b031690565b6001600160a01b0316146102775760405162461bcd60e51b8152600401610145906104e3565b600080546001600160a01b038381166001600160a01b0319831681178455604051919092169283917f8be0079c531659141344cd1fd0a4f28419497f9722a3daafe3b4186f6b6457e09190a35050565b60006001600160a01b0382165b92915050565b6103588161033c565b81146102b057600080fd5b80356103498161034f565b60006020828403121561038357610383600080fd5b600061038f8484610363565b949350505050565b6103a08161033c565b82525050565b602081016103498284610397565b8015156103a0565b6020810161034982846103b4565b6009815260006020820168139bdd08185919195960ba1b815291505b5060200190565b60208082528101610349816103ca565b600f81526000602082016e496e76616c6964206164647265737360881b815291506103e6565b60208082528101610349816103fd565b600d81526000602082016c105b1c9958591e481859191959609a1b815291506103e6565b6020808252810161034981610433565b6020808252810161034981602681527f4f776e61626c653a206e6577206f776e657220697320746865207a65726f206160208201526564647265737360d01b604082015260600190565b60208082527f4f776e61626c653a2063616c6c6572206973206e6f7420746865206f776e6572910190815260006103e6565b60208082528101610349816104b156fea264697066735822122039004f7f8e353f4fbbf873f9b34fec659bdd633ba3d118f0a549566d58b4c8b864736f6c634300080f0033",
  "linkReferences": {},
  "deployedLinkReferences": {}
}