{
  "_format": "hh-sol-artifact-1",
  "contractName": "RouterEventEmitter",
  "sourceName": "contracts/test/RouterEventEmitter.sol",
  "abi": [
    {
      "inputs": [
        {
          "internalType": "address",
          "name": "_vault",
          "type": "address"
        },
        {
          "internalType": "address",
          "name": "_wETH",
          "type": "address"
        }
      ],
      "stateMutability": "nonpayable",
      "type": "constructor"
    },
    {
      "anonymous": false,
      "inputs": [
        {
          "indexed": false,
          "internalType": "uint256",
          "name": "amount",
          "type": "uint256"
        }
      ],
      "name": "Amounts",
      "type": "event"
    },
    {
      "inputs": [
        {
          "internalType": "address payable",
          "name": "router",
          "type": "address"
        },
        {
          "components": [
            {
              "components": [
                {
                  "internalType": "address",
                  "name": "pool",
                  "type": "address"
                },
                {
                  "internalType": "bytes",
                  "name": "data",
                  "type": "bytes"
                },
                {
                  "internalType": "address",
                  "name": "callback",
                  "type": "address"
                },
                {
                  "internalType": "bytes",
                  "name": "callbackData",
                  "type": "bytes"
                }
              ],
              "internalType": "struct IRouter.SwapStep[]",
              "name": "steps",
              "type": "tuple[]"
            },
            {
              "internalType": "address",
              "name": "tokenIn",
              "type": "address"
            },
            {
              "internalType": "uint256",
              "name": "amountIn",
              "type": "uint256"
            }
          ],
          "internalType": "struct IRouter.SwapPath[]",
          "name": "paths",
          "type": "tuple[]"
        },
        {
          "internalType": "uint256",
          "name": "amountOutMin",
          "type": "uint256"
        },
        {
          "internalType": "uint256",
          "name": "deadline",
          "type": "uint256"
        }
      ],
      "name": "swap",
      "outputs": [],
      "stateMutability": "nonpayable",
      "type": "function"
    },
    {
      "inputs": [],
      "name": "vault",
      "outputs": [
        {
          "internalType": "address",
          "name": "",
          "type": "address"
        }
      ],
      "stateMutability": "view",
      "type": "function"
    },
    {
      "inputs": [],
      "name": "wETH",
      "outputs": [
        {
          "internalType": "address",
          "name": "",
          "type": "address"
        }
      ],
      "stateMutability": "view",
      "type": "function"
    },
    {
      "stateMutability": "payable",
      "type": "receive"
    }
  ],
  "bytecode": "0x60c060405234801561001057600080fd5b506040516109eb3803806109eb83398101604081905261002f9161007b565b6001600160a01b039182166080521660a0526100b8565b60006001600160a01b0382165b92915050565b61006281610046565b811461006d57600080fd5b50565b805161005381610059565b6000806040838503121561009157610091600080fd5b600061009d8585610070565b92505060206100ae85828601610070565b9150509250929050565b60805160a0516109106100db600039600060780152600060c201526109106000f3fe6080604052600436106100385760003560e01c8063ae8d340b14610044578063f242862114610066578063fbfa77cf146100b057600080fd5b3661003f57005b600080fd5b34801561005057600080fd5b5061006461005f3660046105ab565b6100e4565b005b34801561007257600080fd5b5061009a7f000000000000000000000000000000000000000000000000000000000000000081565b6040516100a79190610639565b60405180910390f35b3480156100bc57600080fd5b5061009a7f000000000000000000000000000000000000000000000000000000000000000081565b600080856001600160a01b0316632cc4081e60e01b86868660405160240161010e9392919061082f565b60408051601f198184030181529181526020820180516001600160e01b03166001600160e01b031990941693909317909252905161014c919061087e565b600060405180830381855af49150503d8060008114610187576040519150601f19603f3d011682016040523d82523d6000602084013e61018c565b606091505b50915091508161019e5761019e61088a565b7fb9ce0b996ba9a987b048ca942293baba720961c04aa083b70df43984221623b3818060200190518101906101d391906108ab565b6040516101e091906108cc565b60405180910390a1505050505050565b60006001600160a01b0382165b92915050565b61020c816101f0565b811461021757600080fd5b50565b80356101fd81610203565b634e487b7160e01b600052604160045260246000fd5b601f19601f830116810181811067ffffffffffffffff8211171561026157610261610225565b6040525050565b600061027360405190565b905061027f828261023b565b919050565b600067ffffffffffffffff82111561029e5761029e610225565b5060209081020190565b600067ffffffffffffffff8211156102c2576102c2610225565b601f19601f83011660200192915050565b82818337506000910152565b60006102f26102ed846102a8565b610268565b90508281526020810184848401111561030d5761030d600080fd5b6103188482856102d3565b509392505050565b600082601f83011261033457610334600080fd5b81356103448482602086016102df565b949350505050565b60006080828403121561036157610361600080fd5b61036b6080610268565b90506000610379848461021a565b825250602082013567ffffffffffffffff81111561039957610399600080fd5b6103a584828501610320565b60208301525060406103b98482850161021a565b604083015250606082013567ffffffffffffffff8111156103dc576103dc600080fd5b6103e884828501610320565b60608301525092915050565b60006104026102ed84610284565b8381529050602080820190840283018581111561042157610421600080fd5b835b8181101561046257803567ffffffffffffffff81111561044557610445600080fd5b808601610452898261034c565b8552505060209283019201610423565b5050509392505050565b600082601f83011261048057610480600080fd5b81356103448482602086016103f4565b8061020c565b80356101fd81610490565b6000606082840312156104b6576104b6600080fd5b6104c06060610268565b9050813567ffffffffffffffff8111156104dc576104dc600080fd5b6104e88482850161046c565b82525060206104f98484830161021a565b602083015250604061050d84828501610496565b60408301525092915050565b60006105276102ed84610284565b8381529050602080820190840283018581111561054657610546600080fd5b835b8181101561046257803567ffffffffffffffff81111561056a5761056a600080fd5b80860161057789826104a1565b8552505060209283019201610548565b600082601f83011261059b5761059b600080fd5b8135610344848260208601610519565b600080600080608085870312156105c4576105c4600080fd5b60006105d0878761021a565b945050602085013567ffffffffffffffff8111156105f0576105f0600080fd5b6105fc87828801610587565b935050604061060d87828801610496565b925050606061061e87828801610496565b91505092959194509250565b610633816101f0565b82525050565b602081016101fd828461062a565b60005b8381101561066257818101518382015260200161064a565b83811115610671576000848401525b50505050565b6000610681825190565b808452602084019350610698818560208601610647565b601f01601f19169290920192915050565b805160009060808401906106bd858261062a565b50602083015184820360208601526106d58282610677565b91505060408301516106ea604086018261062a565b50606083015184820360608601526107028282610677565b95945050505050565b600061071783836106a9565b9392505050565b6000610728825190565b808452602084019350836020820285016107428560200190565b8060005b85811015610777578484038952815161075f858261070b565b94506020830160209a909a0199925050600101610746565b5091979650505050505050565b80610633565b80516060808452600091908401906107a2828261071e565b91505060208301516107b7602086018261062a565b5060408301516103186040860182610784565b6000610717838361078a565b60006107e0825190565b808452602084019350836020820285016107fa8560200190565b8060005b85811015610777578484038952815161081785826107ca565b94506020830160209a909a01999250506001016107fe565b6060808252810161084081866107d6565b905061084f6020830185610784565b6103446040830184610784565b6000610866825190565b610874818560208601610647565b9290920192915050565b6000610717828461085c565b634e487b7160e01b600052600160045260246000fd5b80516101fd81610490565b6000602082840312156108c0576108c0600080fd5b600061034484846108a0565b602081016101fd828461078456fea2646970667358221220f32ed2d97c73861b31eda05985f1601022bec77852cb4509497feaf048d1c52164736f6c634300080f0033",
  "linkReferences": {},
  "deployedLinkReferences": {}
}