{
  "_format": "hh-sol-artifact-1",
  "contractName": "SyncSwapClassicPool",
  "sourceName": "contracts/pool/classic/SyncSwapClassicPoolFactory.sol",
  "abi": [
    {
      "inputs": [],
      "stateMutability": "nonpayable",
      "type": "constructor"
    },
    {
      "inputs": [],
      "name": "Expired",
      "type": "error"
    },
    {
      "inputs": [],
      "name": "InsufficientLiquidityMinted",
      "type": "error"
    },
    {
      "inputs": [],
      "name": "InvalidSignature",
      "type": "error"
    },
    {
      "inputs": [],
      "name": "Overflow",
      "type": "error"
    },
    {
      "anonymous": false,
      "inputs": [
        {
          "indexed": true,
          "internalType": "address",
          "name": "owner",
          "type": "address"
        },
        {
          "indexed": true,
          "internalType": "address",
          "name": "spender",
          "type": "address"
        },
        {
          "indexed": false,
          "internalType": "uint256",
          "name": "amount",
          "type": "uint256"
        }
      ],
      "name": "Approval",
      "type": "event"
    },
    {
      "anonymous": false,
      "inputs": [
        {
          "indexed": true,
          "internalType": "address",
          "name": "sender",
          "type": "address"
        },
        {
          "indexed": false,
          "internalType": "uint256",
          "name": "amount0",
          "type": "uint256"
        },
        {
          "indexed": false,
          "internalType": "uint256",
          "name": "amount1",
          "type": "uint256"
        },
        {
          "indexed": false,
          "internalType": "uint256",
          "name": "liquidity",
          "type": "uint256"
        },
        {
          "indexed": true,
          "internalType": "address",
          "name": "to",
          "type": "address"
        }
      ],
      "name": "Burn",
      "type": "event"
    },
    {
      "anonymous": false,
      "inputs": [
        {
          "indexed": true,
          "internalType": "address",
          "name": "sender",
          "type": "address"
        },
        {
          "indexed": false,
          "internalType": "uint256",
          "name": "amount0",
          "type": "uint256"
        },
        {
          "indexed": false,
          "internalType": "uint256",
          "name": "amount1",
          "type": "uint256"
        },
        {
          "indexed": false,
          "internalType": "uint256",
          "name": "liquidity",
          "type": "uint256"
        },
        {
          "indexed": true,
          "internalType": "address",
          "name": "to",
          "type": "address"
        }
      ],
      "name": "Mint",
      "type": "event"
    },
    {
      "anonymous": false,
      "inputs": [
        {
          "indexed": true,
          "internalType": "address",
          "name": "sender",
          "type": "address"
        },
        {
          "indexed": false,
          "internalType": "uint256",
          "name": "amount0In",
          "type": "uint256"
        },
        {
          "indexed": false,
          "internalType": "uint256",
          "name": "amount1In",
          "type": "uint256"
        },
        {
          "indexed": false,
          "internalType": "uint256",
          "name": "amount0Out",
          "type": "uint256"
        },
        {
          "indexed": false,
          "internalType": "uint256",
          "name": "amount1Out",
          "type": "uint256"
        },
        {
          "indexed": true,
          "internalType": "address",
          "name": "to",
          "type": "address"
        }
      ],
      "name": "Swap",
      "type": "event"
    },
    {
      "anonymous": false,
      "inputs": [
        {
          "indexed": false,
          "internalType": "uint256",
          "name": "reserve0",
          "type": "uint256"
        },
        {
          "indexed": false,
          "internalType": "uint256",
          "name": "reserve1",
          "type": "uint256"
        }
      ],
      "name": "Sync",
      "type": "event"
    },
    {
      "anonymous": false,
      "inputs": [
        {
          "indexed": true,
          "internalType": "address",
          "name": "from",
          "type": "address"
        },
        {
          "indexed": true,
          "internalType": "address",
          "name": "to",
          "type": "address"
        },
        {
          "indexed": false,
          "internalType": "uint256",
          "name": "amount",
          "type": "uint256"
        }
      ],
      "name": "Transfer",
      "type": "event"
    },
    {
      "inputs": [],
      "name": "DOMAIN_SEPARATOR",
      "outputs": [
        {
          "internalType": "bytes32",
          "name": "",
          "type": "bytes32"
        }
      ],
      "stateMutability": "view",
      "type": "function"
    },
    {
      "inputs": [
        {
          "internalType": "address",
          "name": "",
          "type": "address"
        },
        {
          "internalType": "address",
          "name": "",
          "type": "address"
        }
      ],
      "name": "allowance",
      "outputs": [
        {
          "internalType": "uint256",
          "name": "",
          "type": "uint256"
        }
      ],
      "stateMutability": "view",
      "type": "function"
    },
    {
      "inputs": [
        {
          "internalType": "address",
          "name": "_spender",
          "type": "address"
        },
        {
          "internalType": "uint256",
          "name": "_amount",
          "type": "uint256"
        }
      ],
      "name": "approve",
      "outputs": [
        {
          "internalType": "bool",
          "name": "",
          "type": "bool"
        }
      ],
      "stateMutability": "nonpayable",
      "type": "function"
    },
    {
      "inputs": [
        {
          "internalType": "address",
          "name": "",
          "type": "address"
        }
      ],
      "name": "balanceOf",
      "outputs": [
        {
          "internalType": "uint256",
          "name": "",
          "type": "uint256"
        }
      ],
      "stateMutability": "view",
      "type": "function"
    },
    {
      "inputs": [
        {
          "internalType": "bytes",
          "name": "_data",
          "type": "bytes"
        },
        {
          "internalType": "address",
          "name": "_sender",
          "type": "address"
        },
        {
          "internalType": "address",
          "name": "_callback",
          "type": "address"
        },
        {
          "internalType": "bytes",
          "name": "_callbackData",
          "type": "bytes"
        }
      ],
      "name": "burn",
      "outputs": [
        {
          "components": [
            {
              "internalType": "address",
              "name": "token",
              "type": "address"
            },
            {
              "internalType": "uint256",
              "name": "amount",
              "type": "uint256"
            }
          ],
          "internalType": "struct IPool.TokenAmount[]",
          "name": "_amounts",
          "type": "tuple[]"
        }
      ],
      "stateMutability": "nonpayable",
      "type": "function"
    },
    {
      "inputs": [
        {
          "internalType": "bytes",
          "name": "_data",
          "type": "bytes"
        },
        {
          "internalType": "address",
          "name": "_sender",
          "type": "address"
        },
        {
          "internalType": "address",
          "name": "_callback",
          "type": "address"
        },
        {
          "internalType": "bytes",
          "name": "_callbackData",
          "type": "bytes"
        }
      ],
      "name": "burnSingle",
      "outputs": [
        {
          "components": [
            {
              "internalType": "address",
              "name": "token",
              "type": "address"
            },
            {
              "internalType": "uint256",
              "name": "amount",
              "type": "uint256"
            }
          ],
          "internalType": "struct IPool.TokenAmount",
          "name": "_tokenAmount",
          "type": "tuple"
        }
      ],
      "stateMutability": "nonpayable",
      "type": "function"
    },
    {
      "inputs": [],
      "name": "decimals",
      "outputs": [
        {
          "internalType": "uint8",
          "name": "",
          "type": "uint8"
        }
      ],
      "stateMutability": "view",
      "type": "function"
    },
    {
      "inputs": [
        {
          "internalType": "address",
          "name": "_tokenOut",
          "type": "address"
        },
        {
          "internalType": "uint256",
          "name": "_amountOut",
          "type": "uint256"
        },
        {
          "internalType": "address",
          "name": "_sender",
          "type": "address"
        }
      ],
      "name": "getAmountIn",
      "outputs": [
        {
          "internalType": "uint256",
          "name": "_amountIn",
          "type": "uint256"
        }
      ],
      "stateMutability": "view",
      "type": "function"
    },
    {
      "inputs": [
        {
          "internalType": "address",
          "name": "_tokenIn",
          "type": "address"
        },
        {
          "internalType": "uint256",
          "name": "_amountIn",
          "type": "uint256"
        },
        {
          "internalType": "address",
          "name": "_sender",
          "type": "address"
        }
      ],
      "name": "getAmountOut",
      "outputs": [
        {
          "internalType": "uint256",
          "name": "_amountOut",
          "type": "uint256"
        }
      ],
      "stateMutability": "view",
      "type": "function"
    },
    {
      "inputs": [],
      "name": "getAssets",
      "outputs": [
        {
          "internalType": "address[]",
          "name": "assets",
          "type": "address[]"
        }
      ],
      "stateMutability": "view",
      "type": "function"
    },
    {
      "inputs": [],
      "name": "getProtocolFee",
      "outputs": [
        {
          "internalType": "uint24",
          "name": "_protocolFee",
          "type": "uint24"
        }
      ],
      "stateMutability": "view",
      "type": "function"
    },
    {
      "inputs": [],
      "name": "getReserves",
      "outputs": [
        {
          "internalType": "uint256",
          "name": "_reserve0",
          "type": "uint256"
        },
        {
          "internalType": "uint256",
          "name": "_reserve1",
          "type": "uint256"
        }
      ],
      "stateMutability": "view",
      "type": "function"
    },
    {
      "inputs": [
        {
          "internalType": "address",
          "name": "_sender",
          "type": "address"
        },
        {
          "internalType": "address",
          "name": "_tokenIn",
          "type": "address"
        },
        {
          "internalType": "address",
          "name": "_tokenOut",
          "type": "address"
        },
        {
          "internalType": "bytes",
          "name": "data",
          "type": "bytes"
        }
      ],
      "name": "getSwapFee",
      "outputs": [
        {
          "internalType": "uint24",
          "name": "_swapFee",
          "type": "uint24"
        }
      ],
      "stateMutability": "view",
      "type": "function"
    },
    {
      "inputs": [],
      "name": "invariantLast",
      "outputs": [
        {
          "internalType": "uint256",
          "name": "",
          "type": "uint256"
        }
      ],
      "stateMutability": "view",
      "type": "function"
    },
    {
      "inputs": [],
      "name": "master",
      "outputs": [
        {
          "internalType": "address",
          "name": "",
          "type": "address"
        }
      ],
      "stateMutability": "view",
      "type": "function"
    },
    {
      "inputs": [
        {
          "internalType": "bytes",
          "name": "_data",
          "type": "bytes"
        },
        {
          "internalType": "address",
          "name": "_sender",
          "type": "address"
        },
        {
          "internalType": "address",
          "name": "_callback",
          "type": "address"
        },
        {
          "internalType": "bytes",
          "name": "_callbackData",
          "type": "bytes"
        }
      ],
      "name": "mint",
      "outputs": [
        {
          "internalType": "uint256",
          "name": "",
          "type": "uint256"
        }
      ],
      "stateMutability": "nonpayable",
      "type": "function"
    },
    {
      "inputs": [],
      "name": "name",
      "outputs": [
        {
          "internalType": "string",
          "name": "",
          "type": "string"
        }
      ],
      "stateMutability": "view",
      "type": "function"
    },
    {
      "inputs": [
        {
          "internalType": "address",
          "name": "",
          "type": "address"
        }
      ],
      "name": "nonces",
      "outputs": [
        {
          "internalType": "uint256",
          "name": "",
          "type": "uint256"
        }
      ],
      "stateMutability": "view",
      "type": "function"
    },
    {
      "inputs": [
        {
          "internalType": "address",
          "name": "_owner",
          "type": "address"
        },
        {
          "internalType": "address",
          "name": "_spender",
          "type": "address"
        },
        {
          "internalType": "uint256",
          "name": "_amount",
          "type": "uint256"
        },
        {
          "internalType": "uint256",
          "name": "_deadline",
          "type": "uint256"
        },
        {
          "internalType": "uint8",
          "name": "_v",
          "type": "uint8"
        },
        {
          "internalType": "bytes32",
          "name": "_r",
          "type": "bytes32"
        },
        {
          "internalType": "bytes32",
          "name": "_s",
          "type": "bytes32"
        }
      ],
      "name": "permit",
      "outputs": [],
      "stateMutability": "nonpayable",
      "type": "function"
    },
    {
      "inputs": [
        {
          "internalType": "address",
          "name": "_owner",
          "type": "address"
        },
        {
          "internalType": "address",
          "name": "_spender",
          "type": "address"
        },
        {
          "internalType": "uint256",
          "name": "_amount",
          "type": "uint256"
        },
        {
          "internalType": "uint256",
          "name": "_deadline",
          "type": "uint256"
        },
        {
          "internalType": "bytes",
          "name": "_signature",
          "type": "bytes"
        }
      ],
      "name": "permit2",
      "outputs": [],
      "stateMutability": "nonpayable",
      "type": "function"
    },
    {
      "inputs": [],
      "name": "poolType",
      "outputs": [
        {
          "internalType": "uint16",
          "name": "",
          "type": "uint16"
        }
      ],
      "stateMutability": "view",
      "type": "function"
    },
    {
      "inputs": [],
      "name": "reserve0",
      "outputs": [
        {
          "internalType": "uint256",
          "name": "",
          "type": "uint256"
        }
      ],
      "stateMutability": "view",
      "type": "function"
    },
    {
      "inputs": [],
      "name": "reserve1",
      "outputs": [
        {
          "internalType": "uint256",
          "name": "",
          "type": "uint256"
        }
      ],
      "stateMutability": "view",
      "type": "function"
    },
    {
      "inputs": [
        {
          "internalType": "bytes4",
          "name": "interfaceID",
          "type": "bytes4"
        }
      ],
      "name": "supportsInterface",
      "outputs": [
        {
          "internalType": "bool",
          "name": "",
          "type": "bool"
        }
      ],
      "stateMutability": "pure",
      "type": "function"
    },
    {
      "inputs": [
        {
          "internalType": "bytes",
          "name": "_data",
          "type": "bytes"
        },
        {
          "internalType": "address",
          "name": "_sender",
          "type": "address"
        },
        {
          "internalType": "address",
          "name": "_callback",
          "type": "address"
        },
        {
          "internalType": "bytes",
          "name": "_callbackData",
          "type": "bytes"
        }
      ],
      "name": "swap",
      "outputs": [
        {
          "components": [
            {
              "internalType": "address",
              "name": "token",
              "type": "address"
            },
            {
              "internalType": "uint256",
              "name": "amount",
              "type": "uint256"
            }
          ],
          "internalType": "struct IPool.TokenAmount",
          "name": "_tokenAmount",
          "type": "tuple"
        }
      ],
      "stateMutability": "nonpayable",
      "type": "function"
    },
    {
      "inputs": [],
      "name": "symbol",
      "outputs": [
        {
          "internalType": "string",
          "name": "",
          "type": "string"
        }
      ],
      "stateMutability": "view",
      "type": "function"
    },
    {
      "inputs": [],
      "name": "token0",
      "outputs": [
        {
          "internalType": "address",
          "name": "",
          "type": "address"
        }
      ],
      "stateMutability": "view",
      "type": "function"
    },
    {
      "inputs": [],
      "name": "token1",
      "outputs": [
        {
          "internalType": "address",
          "name": "",
          "type": "address"
        }
      ],
      "stateMutability": "view",
      "type": "function"
    },
    {
      "inputs": [],
      "name": "totalSupply",
      "outputs": [
        {
          "internalType": "uint256",
          "name": "",
          "type": "uint256"
        }
      ],
      "stateMutability": "view",
      "type": "function"
    },
    {
      "inputs": [
        {
          "internalType": "address",
          "name": "_to",
          "type": "address"
        },
        {
          "internalType": "uint256",
          "name": "_amount",
          "type": "uint256"
        }
      ],
      "name": "transfer",
      "outputs": [
        {
          "internalType": "bool",
          "name": "",
          "type": "bool"
        }
      ],
      "stateMutability": "nonpayable",
      "type": "function"
    },
    {
      "inputs": [
        {
          "internalType": "address",
          "name": "_from",
          "type": "address"
        },
        {
          "internalType": "address",
          "name": "_to",
          "type": "address"
        },
        {
          "internalType": "uint256",
          "name": "_amount",
          "type": "uint256"
        }
      ],
      "name": "transferFrom",
      "outputs": [
        {
          "internalType": "bool",
          "name": "",
          "type": "bool"
        }
      ],
      "stateMutability": "nonpayable",
      "type": "function"
    },
    {
      "inputs": [],
      "name": "vault",
      "outputs": [
        {
          "internalType": "address",
          "name": "",
          "type": "address"
        }
      ],
      "stateMutability": "view",
      "type": "function"
    }
  ],
  "bytecode": "0x61012060405260126080523480156200001757600080fd5b5060016008819055506000336001600160a01b031663d039f6226040518163ffffffff1660e01b8152600401600060405180830381865afa15801562000061573d6000803e3d6000fd5b505050506040513d6000823e601f3d908101601f191682016040526200008b919081019062000597565b905060008082806020019051810190620000a6919062000611565b915091506000336001600160a01b031663ee97f7f36040518163ffffffff1660e01b8152600401602060405180830381865afa158015620000eb573d6000803e3d6000fd5b505050506040513d601f19601f8201168201806040525081019062000111919062000654565b9050806001600160a01b031660a0816001600160a01b031681525050806001600160a01b031663fbfa77cf6040518163ffffffff1660e01b8152600401602060405180830381865afa1580156200016c573d6000803e3d6000fd5b505050506040513d601f19601f8201168201806040525081019062000192919062000654565b6001600160a01b0390811660c05282811661010052831660e052600080620001c685620002c2602090811b6200207c17901c565b91509150600080620001e386620002c260201b6200207c1760201c565b91509150838015620001f25750815b1562000251576200024b8382604051602001620002119291906200069e565b604051602081830303815290604052848360405160200162000235929190620006f3565b60408051601f198184030181529190526200039a565b620002b4565b620002b46040518060400160405280601381526020017f53796e635377617020436c6173736963204c500000000000000000000000000081525060405180604001604052806004815260200163063534c560e41b8152506200039a60201b60201c565b505050505050505062000a13565b60408051600481526024810182526020810180516001600160e01b03166395d89b4160e01b1790529051600091606091839182916001600160a01b038716916200030c9162000730565b600060405180830381855afa9150503d806000811462000349576040519150601f19603f3d011682016040523d82523d6000602084013e6200034e565b606091505b509150915081156200037d5760018180602001905181019062000372919062000597565b935093505050915091565b600060405180602001604052806000815250935093505050915091565b6004620003a8838262000842565b506005620003b7828262000842565b5046600655620003c6620003cd565b6007555050565b60007f8b73c3c69bb8fe3d512ecc4cf759cc79239f7b179b0ffacaa9a75d522b39400f60046040516200040191906200098c565b6040519081900381206200043f92917fc89efdaa54c0f20c7adf612882df0950f5a951637e0307cdcb4c672f298b8bc69046903090602001620009bd565b60405160208183030381529060405280519060200120905090565b634e487b7160e01b600052604160045260246000fd5b601f19601f83011681018181106001600160401b03821117156200049857620004986200045a565b6040525050565b6000620004ab60405190565b9050620004b9828262000470565b919050565b60006001600160401b03821115620004da57620004da6200045a565b601f19601f83011660200192915050565b60005b8381101562000508578181015183820152602001620004ee565b8381111562000518576000848401525b50505050565b6000620005356200052f84620004be565b6200049f565b905082815260208101848484011115620005525762000552600080fd5b6200055f848285620004eb565b509392505050565b600082601f8301126200057d576200057d600080fd5b81516200058f8482602086016200051e565b949350505050565b600060208284031215620005ae57620005ae600080fd5b81516001600160401b03811115620005c957620005c9600080fd5b6200058f8482850162000567565b60006001600160a01b0382165b92915050565b620005f581620005d7565b81146200060157600080fd5b50565b8051620005e481620005ea565b60008060408385031215620006295762000629600080fd5b600062000637858562000604565b92505060206200064a8582860162000604565b9150509250929050565b6000602082840312156200066b576200066b600080fd5b60006200058f848462000604565b600062000684825190565b62000694818560208601620004eb565b9290920192915050565b68029bcb731a9bbb0b8160bd1b81526009016000620006be828562000679565b602f60f81b81526001019150620006d6828462000679565b6a020436c6173736963204c560ac1b81529150600b82016200058f565b600062000701828562000679565b602f60f81b8152600101915062000719828462000679565b6402063534c560dc1b81529150600582016200058f565b60006200073e828462000679565b9392505050565b634e487b7160e01b600052602260045260246000fd5b6002810460018216806200077057607f821691505b60208210810362000785576200078562000745565b50919050565b6000620005e4620007998381565b90565b620007a7836200078b565b81546008840282811b60001990911b908116901990911617825550505050565b6000620007d68184846200079c565b505050565b81811015620007fa57620007f1600082620007c7565b600101620007db565b5050565b601f821115620007d6576000818152602090206020601f85010481016020851015620008275750805b6200083b6020601f860104830182620007db565b5050505050565b81516001600160401b038111156200085e576200085e6200045a565b6200086a82546200075b565b62000877828285620007fe565b6020601f831160018114620008ae5760008415620008955750858201515b600019600886021c19811660028602178655506200090a565b600085815260208120601f198616915b82811015620008e05788850151825560209485019460019092019101620008be565b86831015620008fd5784890151600019601f89166008021c191682555b6001600288020188555050505b505050505050565b6000815462000921816200075b565b6001821680156200093b5760018114620009515762000983565b60ff198316865281151582028601935062000983565b60008581526020902060005b838110156200097b578154888201526001909101906020016200095d565b838801955050505b50505092915050565b60006200073e828462000912565b620009a5816200078b565b82525050565b80620009a5565b620009a581620005d7565b60a08101620009cd82886200099a565b620009dc6020830187620009ab565b620009eb60408301866200099a565b620009fa6060830185620009ab565b62000a096080830184620009b2565b9695505050505050565b60805160a05160c05160e0516101005161411662000b7e6000396000818161042e015281816106ff0152818161073901528181610d4301528181610da501528181610e6901528181610ed301528181610f2f015281816112ce01528181611499015281816114d2015281816115c10152818161197801528181611d3301528181611f1f015281816120310152612278015260008181610288015281816106de0152818161075a01528181610d8401528181610de001528181610ef401528181610fbc0152818161127a0152818161143701528181611478015281816115e20152818161161b0152818161191c0152818161195201528181611cfa01528181611ebf01528181611fd50152818161200b01526121b30152600081816104da015281816121840152818161224b0152818161297f0152612a060152600081816104930152818161187c015281816119dc0152818161240c01526125670152600061030d01526141166000f3fe608060405234801561001057600080fd5b50600436106101f05760003560e01c806370a082311161010f578063b1dd61b6116100a2578063ee97f7f311610071578063ee97f7f31461048e578063f66eab5b146104b5578063fbfa77cf146104d5578063ff9c8ac6146104fc57600080fd5b8063b1dd61b614610414578063d21220a714610429578063d505accf14610450578063dd62ed3e1461046357600080fd5b806395d89b41116100de57806395d89b41146103de578063a287c795146103e6578063a5a41031146103f9578063a9059cbb1461040157600080fd5b806370a082311461036b5780637132bb7f1461038b5780637ecebe001461039e5780638b4c5470146103be57600080fd5b806323b872dd116101875780633644e515116101565780633644e5151461033c578063443cb4bc146103445780635a76f25e1461034d57806367e4ac2c1461035657600080fd5b806323b872dd146102c057806327b0bcea146102d35780632c0198cc146102f3578063313ce5671461030857600080fd5b80630902f1ac116101c35780630902f1ac1461025c578063095ea7b3146102705780630dfe16811461028357806318160ddd146102b757600080fd5b806301ffc9a7146101f557806303e7286a1461021e57806306fdde031461023e57806307f293f714610253575b600080fd5b610208610203366004612e76565b61050f565b6040516102159190612ea1565b60405180910390f35b61023161022c366004612f26565b610561565b6040516102159190612fcd565b610246610a1c565b6040516102159190613039565b610231600b5481565b600954600a5460405161021592919061304a565b61020861027e366004613076565b610aaa565b6102aa7f000000000000000000000000000000000000000000000000000000000000000081565b60405161021591906130bc565b61023160005481565b6102086102ce3660046130ca565b610ac0565b6102e66102e1366004612f26565b610ba0565b604051610215919061313e565b61030661030136600461314c565b611194565b005b61032f7f000000000000000000000000000000000000000000000000000000000000000081565b60405161021591906131d0565b610231611239565b61023160095481565b610231600a5481565b61035e611258565b604051610215919061323b565b61023161037936600461324c565b60016020526000908152604090205481565b6102e6610399366004612f26565b611323565b6102316103ac36600461324c565b60036020526000908152604090205481565b6103d16103cc366004613368565b611862565b60405161021591906133f2565b610246611903565b6102316103f4366004613400565b611910565b6103d16119c2565b61020861040f366004613076565b611a52565b61041c600181565b6040516102159190613450565b6102aa7f000000000000000000000000000000000000000000000000000000000000000081565b61030661045e366004613472565b611ac7565b610231610471366004613511565b600260209081526000928352604080842090915290825290205481565b6102aa7f000000000000000000000000000000000000000000000000000000000000000081565b6104c86104c3366004612f26565b611bbc565b6040516102159190613596565b6102aa7f000000000000000000000000000000000000000000000000000000000000000081565b61023161050a366004613400565b611fc9565b60006001600160e01b031982166301ffc9a760e01b148061054057506001600160e01b0319821663d505accf60e01b145b8061055b57506001600160e01b03198216630b00663360e21b145b92915050565b600061056b61214d565b61060260405180610200016040528060006001600160a01b0316815260200160006001600160a01b03168152602001600081526020016000815260200160008152602001600081526020016000815260200160008152602001600081526020016000815260200160008152602001600081526020016000815260200160008152602001600062ffffff168152602001606081525090565b61060e8789018961324c565b6001600160a01b03166020820152600954600a546060830152604082015261063461217f565b60a083018190526080830182905261064c91906122e9565b6101408201526040810151608082015161066691906135bd565b60c0820152606081015160a082015161067f91906135bd565b60e082015261068d866123d4565b9550600081604001516000146106c557816040015182606001518360c001516106b691906135d4565b6106c09190613609565b6106c8565b60005b60e08301519091508111801561073357610723887f00000000000000000000000000000000000000000000000000000000000000007f0000000000000000000000000000000000000000000000000000000000000000612492565b62ffffff166101c084015261078a565b61077e887f00000000000000000000000000000000000000000000000000000000000000007f0000000000000000000000000000000000000000000000000000000000000000612492565b62ffffff166101c08401525b6107b2836101c0015162ffffff168460c001518560e0015185876040015188606001516124b7565b61012085015261010084018190526040840180516107d190839061361d565b9052506101208301516060840180516107eb90839061361d565b9052506040830151606084015161080291906122e9565b610160840181905260009061081a908290819061255b565b6101808601819052909150600003610857576103e884610140015161083f91906135bd565b6101a085015261085260006103e8612734565b61088f565b6101608401516101808501516101408601516108749083906135bd565b61087e91906135d4565b6108889190613609565b6101a08501525b836101a001516000036108b557604051633489be7560e21b815260040160405180910390fd5b6108c88460200151856101a00151612734565b6001600160a01b0388161561097c576001600160a01b0389168452604080516020601f89018190048102820181019092528781529088908890819084018382808284376000920191909152505050506101e0850152604051630204997360e41b81526001600160a01b0389169063204997309061094990879060040161377c565b600060405180830381600087803b15801561096357600080fd5b505af1158015610977573d6000803e3d6000fd5b505050505b61098e84608001518560a00151612791565b801561099e57610140840151600b555b83602001516001600160a01b0316336001600160a01b03167fa8137fff86647d8a402117b9c5dbda627f721d3773338fb9678c83e54ed390808660c001518760e00151886101a001516040516109f69392919061378d565b60405180910390a35050506101a001519050610a126001600855565b9695505050505050565b60048054610a29906137cb565b80601f0160208091040260200160405190810160405280929190818152602001828054610a55906137cb565b8015610aa25780601f10610a7757610100808354040283529160200191610aa2565b820191906000526020600020905b815481529060010190602001808311610a8557829003601f168201915b505050505081565b6000610ab73384846127d9565b50600192915050565b6001600160a01b03831660009081526002602090815260408083203384529091528120546000198114610b1c57610af783826135bd565b6001600160a01b03861660009081526002602090815260408083203384529091529020555b6001600160a01b03851660009081526001602052604081208054859290610b449084906135bd565b90915550506001600160a01b03808516600081815260016020526040908190208054870190555190918716906000805160206140c183398151915290610b8b908790612fcd565b60405180910390a360019150505b9392505050565b6040805180820190915260008082526020820152610bbc61214d565b610c6860405180610200016040528060006001600160a01b0316815260200160006001600160a01b0316815260200160006001600160a01b0316815260200160006001600160a01b03168152602001600081526020016000815260200160008152602001600081526020016000815260200160008152602001600081526020016000815260200160008152602001600062ffffff168152602001600060ff168152602001606081525090565b610c74878901896137f7565b60ff166101c08401526001600160a01b039081166020840152166060820152610c9b61217f565b60a08301908152608083019182523060009081526001602052604081205460c085015291519051610ccd91908361255b565b60e08401819052608084015160c08501519293509091610ced91906135d4565b610cf79190613609565b61010083015260e082015160a083015160c0840151610d1691906135d4565b610d209190613609565b61012083015260c0820151610d36903090612841565b610d3f876123d4565b96507f00000000000000000000000000000000000000000000000000000000000000006001600160a01b031682606001516001600160a01b031603610ecd57610dc9877f00000000000000000000000000000000000000000000000000000000000000007f0000000000000000000000000000000000000000000000000000000000000000612492565b62ffffff166101a083018190526001600160a01b037f00000000000000000000000000000000000000000000000000000000000000001660408401526101008301516080840151610e3d929190610e219082906135bd565b8561012001518660a00151610e3691906135bd565b60016128a0565b610180840152610160830181905261012083018051610e5d90839061361d565b91508181525050610e9e7f00000000000000000000000000000000000000000000000000000000000000008360200151846101200151856101c0015161295d565b6101208201516101408301819052600061010084015260a083018051610ec59083906135bd565b90525061101c565b610f18877f00000000000000000000000000000000000000000000000000000000000000007f0000000000000000000000000000000000000000000000000000000000000000612492565b62ffffff166101a083018190526001600160a01b037f00000000000000000000000000000000000000000000000000000000000000001660408401526101208301516101008401516080850151610f90939291610f74916135bd565b8561012001518660a00151610f8991906135bd565b60006128a0565b610180840152610160830181905261010083018051610fb090839061361d565b91508181525050610ff17f00000000000000000000000000000000000000000000000000000000000000008360200151846101000151856101c0015161295d565b610100820151610140830181905260006101208401526080830180516110189083906135bd565b9052505b6001600160a01b038616156110d0576001600160a01b0387168252604080516020601f87018190048102820181019092528581529086908690819084018382808284376000920191909152505050506101e0830152604051630eace54160e11b81526001600160a01b03871690631d59ca829061109d90859060040161396a565b600060405180830381600087803b1580156110b757600080fd5b505af11580156110cb573d6000803e3d6000fd5b505050505b6110e282608001518360a00151612791565b80156110fe576110fa82608001518360a001516122e9565b600b555b604051806040016040528083606001516001600160a01b03168152602001836101400151815250925081602001516001600160a01b0316336001600160a01b03167fd175a80c109434bb89948928ab2475a6647c94244cb70002197896423c8833638461010001518561012001518660c001516040516111809392919061378d565b60405180910390a35050610a126001600855565b82804211156111b657604051630407b05b60e31b815260040160405180910390fd5b60006111c488888888612a75565b9050611207888286868080601f016020809104026020016040519081016040528093929190818152602001838380828437600092019190915250612b2e92505050565b61122457604051638baa579f60e01b815260040160405180910390fd5b61122f8888886127d9565b5050505050505050565b600060065446146112515761124c612c5a565b905090565b5060075490565b60408051600280825260608083018452926020830190803683370190505090507f0000000000000000000000000000000000000000000000000000000000000000816000815181106112ac576112ac61397b565b60200260200101906001600160a01b031690816001600160a01b0316815250507f0000000000000000000000000000000000000000000000000000000000000000816001815181106113005761130061397b565b60200260200101906001600160a01b031690816001600160a01b03168152505090565b604080518082019091526000808252602082015261133f61214d565b6113dd604051806101c0016040528060006001600160a01b0316815260200160006001600160a01b0316815260200160006001600160a01b0316815260200160006001600160a01b0316815260200160008152602001600081526020016000815260200160008152602001600081526020016000815260200160008152602001600062ffffff168152602001600060ff168152602001606081525090565b6113e9878901896137f7565b60ff166101808401526001600160a01b039081166020840152166040820152600954600a5460a0830152608082015261142061217f565b60e083015260c0820152611433866123d4565b95507f00000000000000000000000000000000000000000000000000000000000000006001600160a01b031681604001516001600160a01b0316036115bb576114bd867f00000000000000000000000000000000000000000000000000000000000000007f0000000000000000000000000000000000000000000000000000000000000000612492565b62ffffff166101608201526001600160a01b037f0000000000000000000000000000000000000000000000000000000000000000166060820152608081015160c082015161150b91906135bd565b8161010001818152505061153a81610160015162ffffff1682610100015183608001518460a0015160016128a0565b610140830152610120820181905260e0820180516115599083906135bd565b90525060208101516101008201516101208301516040516001600160a01b039093169233927fd78ad95fa46c994b6551d0da85fc275fe613ce37657fb8d5e3d130840159d822926115ae9260009182916139a9565b60405180910390a3611702565b611606867f00000000000000000000000000000000000000000000000000000000000000007f0000000000000000000000000000000000000000000000000000000000000000612492565b62ffffff166101608201526001600160a01b037f000000000000000000000000000000000000000000000000000000000000000016606082015260a081015160e082015161165491906135bd565b8161010001818152505061168381610160015162ffffff1682610100015183608001518460a0015160006128a0565b610140830152610120820181905260c0820180516116a29083906135bd565b90525060208101516101008201516101208301516040516001600160a01b039093169233927fd78ad95fa46c994b6551d0da85fc275fe613ce37657fb8d5e3d130840159d822926116f992600092919083906139de565b60405180910390a35b60c08101516001600160801b03101561172e57604051631a93c68960e11b815260040160405180910390fd5b60e08101516001600160801b03101561175a57604051631a93c68960e11b815260040160405180910390fd5b6117788160600151826020015183610120015184610180015161295d565b6001600160a01b0385161561182c576001600160a01b0386168152604080516020601f86018190048102820181019092528481529085908590819084018382808284376000920191909152505050506101a082015260405163608dbcbb60e01b81526001600160a01b0386169063608dbcbb906117f9908490600401613b30565b600060405180830381600087803b15801561181357600080fd5b505af1158015611827573d6000803e3d6000fd5b505050505b61183e8160c001518260e00151612791565b60608101516001600160a01b0316825261012001516020820152610a126001600855565b604051634625a94d60e01b81526000906001600160a01b037f00000000000000000000000000000000000000000000000000000000000000001690634625a94d906118b99030908990899089908990600401613b41565b602060405180830381865afa1580156118d6573d6000803e3d6000fd5b505050506040513d601f19601f820116820180604052508101906118fa9190613b9e565b95945050505050565b60058054610a29906137cb565b600954600a54600091907f00000000000000000000000000000000000000000000000000000000000000006001600160a01b03908116908716148381611976577f0000000000000000000000000000000000000000000000000000000000000000611998565b7f00000000000000000000000000000000000000000000000000000000000000005b90506119b66119a887838b612492565b62ffffff1688868686612ce3565b98975050505050505050565b6040516302a64b8360e21b81526000906001600160a01b037f00000000000000000000000000000000000000000000000000000000000000001690630a992e0c90611a119030906004016130bc565b602060405180830381865afa158015611a2e573d6000803e3d6000fd5b505050506040513d601f19601f8201168201806040525081019061124c9190613b9e565b33600090815260016020526040812080548391908390611a739084906135bd565b90915550506001600160a01b038316600081815260016020526040908190208054850190555133906000805160206140c183398151915290611ab6908690612fcd565b60405180910390a350600192915050565b8380421115611ae957604051630407b05b60e31b815260040160405180910390fd5b6000611af789898989612a75565b9050600060018287878760405160008152602001604052604051611b1e9493929190613bbf565b6020604051602081039080840390855afa158015611b40573d6000803e3d6000fd5b505050602060405103519050896001600160a01b0316816001600160a01b031614611b7e57604051638baa579f60e01b815260040160405180910390fd5b6001600160a01b038116611ba557604051638baa579f60e01b815260040160405180910390fd5b611bb08a8a8a6127d9565b50505050505050505050565b6060611bc661214d565b611c3160405180610140016040528060006001600160a01b0316815260200160006001600160a01b03168152602001600081526020016000815260200160008152602001600081526020016000815260200160008152602001600060ff168152602001606081525090565b611c3d87890189613be7565b60ff166101008301526001600160a01b03166020820152611c5c61217f565b606083019081526040808401928352306000908152600160205290812054608085015291519051611c8e91908361255b565b60a08401819052604084015160808501519293509091611cae91906135d4565b611cb89190613609565b60c083015260a082015160608301516080840151611cd691906135d4565b611ce09190613609565b60e08301526080820151611cf5903090612841565b611d2e7f000000000000000000000000000000000000000000000000000000000000000083602001518460c0015185610100015161295d565b611d677f000000000000000000000000000000000000000000000000000000000000000083602001518460e0015185610100015161295d565b60c082015160408301805191909103905260e08201516060830180519190910390526001600160a01b03861615611e4557611da1876123d4565b6001600160a01b03168252604080516020601f870181900481028201810190925285815290869086908190840183828082843760009201919091525050505061012083015260405163109ea27d60e31b81526001600160a01b038716906384f513e890611e12908590600401613ce3565b600060405180830381600087803b158015611e2c57600080fd5b505af1158015611e40573d6000803e3d6000fd5b505050505b611e5782604001518360600151612791565b8015611e7357611e6f826040015183606001516122e9565b600b555b6040805160028082526060820190925290816020015b6040805180820190915260008082526020820152815260200190600190039081611e8957905050925060405180604001604052807f00000000000000000000000000000000000000000000000000000000000000006001600160a01b031681526020018360c0015181525083600081518110611f0757611f0761397b565b602002602001018190525060405180604001604052807f00000000000000000000000000000000000000000000000000000000000000006001600160a01b031681526020018360e0015181525083600181518110611f6757611f6761397b565b602002602001018190525081602001516001600160a01b0316336001600160a01b03167fd175a80c109434bb89948928ab2475a6647c94244cb70002197896423c8833638460c001518560e0015186608001516040516111809392919061378d565b600954600a54600091907f00000000000000000000000000000000000000000000000000000000000000006001600160a01b0390811690871614838161202f577f0000000000000000000000000000000000000000000000000000000000000000612051565b7f00000000000000000000000000000000000000000000000000000000000000005b905061206f612061878a84612492565b62ffffff16888686866128a0565b5098975050505050505050565b60408051600481526024810182526020810180516001600160e01b03166395d89b4160e01b1790529051600091606091839182916001600160a01b038716916120c491613d16565b600060405180830381855afa9150503d80600081146120ff576040519150601f19603f3d011682016040523d82523d6000602084013e612104565b606091505b50915091508115612130576001818060200190518101906121259190613d7a565b935093505050915091565b600060405180602001604052806000815250935093505050915091565b6002600854036121785760405162461bcd60e51b815260040161216f90613db5565b60405180910390fd5b6002600855565b6000807f00000000000000000000000000000000000000000000000000000000000000006001600160a01b031663f7888aec7f0000000000000000000000000000000000000000000000000000000000000000306040518363ffffffff1660e01b81526004016121f0929190613df0565b602060405180830381865afa15801561220d573d6000803e3d6000fd5b505050506040513d601f19601f820116820180604052508101906122319190613e16565b604051633de222bb60e21b81529092506001600160a01b037f0000000000000000000000000000000000000000000000000000000000000000169063f7888aec906122a2907f0000000000000000000000000000000000000000000000000000000000000000903090600401613df0565b602060405180830381865afa1580156122bf573d6000803e3d6000fd5b505050506040513d601f19601f820116820180604052508101906122e39190613e16565b90509091565b60006001600160801b0383111561231357604051631a93c68960e11b815260040160405180910390fd5b6001600160801b0382111561233b57604051631a93c68960e11b815260040160405180910390fd5b610b9961234883856135d4565b70ffffffffffffffffffffffffffffffffff811160071b81811c68ffffffffffffffffff1060061b1781811c64ffffffffff1060051b1781811c62ffffff1060041b1781811c620100000160b5600192831c1b0260121c80830401811c80830401811c80830401811c80830401811c80830401811c80830401811c80830401901c908190048111900390565b60006001600160a01b0382161561248e576001600160a01b038216331461248e57604051632af3bd5560e21b81526001600160a01b037f0000000000000000000000000000000000000000000000000000000000000000169063abcef554906124419033906004016130bc565b602060405180830381865afa15801561245e573d6000803e3d6000fd5b505050506040513d601f19601f820116820180604052508101906124829190613e4a565b61248e57506000919050565b5090565b60006124af84848460405180602001604052806000815250611862565b949350505050565b600080836000036124cd57506000905080612550565b848610612507576124e2620186a060026135d4565b6124ec86886135bd565b6124f6908a6135d4565b6125009190613609565b9050612550565b60008361251486896135d4565b61251e9190613609565b905061252e620186a060026135d4565b612538828a6135bd565b612542908b6135d4565b61254c9190613609565b9250505b965096945050505050565b600080600054905060007f00000000000000000000000000000000000000000000000000000000000000006001600160a01b0316634ccb20c06040518163ffffffff1660e01b8152600401602060405180830381865afa1580156125c3573d6000803e3d6000fd5b505050506040513d601f19601f820116820180604052508101906125e79190613e76565b600b546001600160a01b03821615159450909150801561272a578315612724578460000361261c5761261987876122e9565b94505b8085111561271f57600061262e6119c2565b62ffffff16905060008161264284896135bd565b61264c90876135d4565b61265691906135d4565b9050600061266484846135d4565b8861267285620186a06135bd565b61267c91906135d4565b612686919061361d565b905060006126948284613609565b9050801561271a576126a68682612734565b604051631087d04360e31b81526001600160a01b0387169063843e8218906126d990600190309086908a90600401613eac565b600060405180830381600087803b1580156126f357600080fd5b505af1158015612707573d6000803e3d6000fd5b505050508087612717919061361d565b96505b505050505b61272a565b6000600b555b5050935093915050565b80600080828254612745919061361d565b90915550506001600160a01b038216600081815260016020526040808220805485019055516000805160206140c183398151915290612785908590612fcd565b60405180910390a35050565b600a81905560098290556040517fcf2aa50876cdfbb541206f89af0ee78d44a2abf8d328e37fa4917f982149848a906127cd908490849061304a565b60405180910390a15050565b6001600160a01b0380841660008181526002602090815260408083209487168084529490915290819020849055517f8c5be1e5ebec7d5bd14f71427d1e84f3dd0314c0f7b2291e5b200ac8c7c3b92590612834908590612fcd565b60405180910390a3505050565b6001600160a01b038216600090815260016020526040812080548392906128699084906135bd565b90915550506000805482900381556040516001600160a01b038416906000805160206140c183398151915290612785908590612fcd565b600080856000036128b45760009150612953565b60006128c388620186a06135bd565b6128cd90886135d4565b9050620186a06128dd89896135d4565b6128e79190613609565b9150831561292257806128fd620186a0886135d4565b612907919061361d565b61291186836135d4565b61291b9190613609565b9250612951565b80612930620186a0876135d4565b61293a919061361d565b61294487836135d4565b61294e9190613609565b92505b505b9550959350505050565b8060ff166000036129ef576040516317d5759960e31b81526001600160a01b037f0000000000000000000000000000000000000000000000000000000000000000169063beabacc8906129b890879087908790600401613ef6565b600060405180830381600087803b1580156129d257600080fd5b505af11580156129e6573d6000803e3d6000fd5b50505050612a6f565b604051636cb568c160e01b81526001600160a01b037f00000000000000000000000000000000000000000000000000000000000000001690636cb568c190612a41908790879087908790600401613f11565b600060405180830381600087803b158015612a5b57600080fd5b505af115801561122f573d6000803e3d6000fd5b50505050565b6000612a7f611239565b6001600160a01b038616600090815260036020526040812080547f6e71edae12b1b97f4d1f60370fef10105fa2faae0126114a169c64845d6126c992899289928992909190612acd83613f46565b9190505587604051602001612ae796959493929190613f60565b60405160208183030381529060405280519060200120604051602001612b0e929190613faf565b604051602081830303815290604052805190602001209050949350505050565b600080612b3b8484612d9e565b9050846001600160a01b0316816001600160a01b031603612b6f576001600160a01b03811615612b6f576001915050610b99565b600080866001600160a01b0316631626ba7e60e01b8787604051602401612b97929190613fe0565b60408051601f198184030181529181526020820180516001600160e01b03166001600160e01b0319909416939093179092529051612bd59190613d16565b600060405180830381855afa9150503d8060008114612c10576040519150601f19603f3d011682016040523d82523d6000602084013e612c15565b606091505b5091509150818015612c28575080516020145b8015612c4f57508051630b135d3f60e11b90612c4d9083016020908101908401613e16565b145b979650505050505050565b60007f8b73c3c69bb8fe3d512ecc4cf759cc79239f7b179b0ffacaa9a75d522b39400f6004604051612c8c9190614072565b604051908190038120612cc892917fc89efdaa54c0f20c7adf612882df0950f5a951637e0307cdcb4c672f298b8bc6904690309060200161407e565b60405160208183030381529060405280519060200120905090565b600084600003612cf5575060006118fa565b8115612d5057612d0886620186a06135bd565b612d1286866135bd565b612d1c91906135d4565b620186a0612d2a87866135d4565b612d3491906135d4565b612d3e9190613609565b612d4990600161361d565b90506118fa565b612d5d86620186a06135bd565b612d6786856135bd565b612d7191906135d4565b620186a0612d7f87876135d4565b612d8991906135d4565b612d939190613609565b610a1290600161361d565b60008151604114612db15750600061055b565b60208201516040830151606084015160001a7f7fffffffffffffffffffffffffffffff5d576e7357a4501ddfe92f46681b20a0821115612df7576000935050505061055b565b60018682858560405160008152602001604052604051612e1a9493929190613bbf565b6020604051602081039080840390855afa158015612e3c573d6000803e3d6000fd5b5050604051601f190151979650505050505050565b6001600160e01b031981165b8114612e6857600080fd5b50565b803561055b81612e51565b600060208284031215612e8b57612e8b600080fd5b60006124af8484612e6b565b8015155b82525050565b6020810161055b8284612e97565b60008083601f840112612ec457612ec4600080fd5b50813567ffffffffffffffff811115612edf57612edf600080fd5b602083019150836001820283011115612efa57612efa600080fd5b9250929050565b60006001600160a01b03821661055b565b612e5d81612f01565b803561055b81612f12565b60008060008060008060808789031215612f4257612f42600080fd5b863567ffffffffffffffff811115612f5c57612f5c600080fd5b612f6889828a01612eaf565b96509650506020612f7b89828a01612f1b565b9450506040612f8c89828a01612f1b565b935050606087013567ffffffffffffffff811115612fac57612fac600080fd5b612fb889828a01612eaf565b92509250509295509295509295565b80612e9b565b6020810161055b8284612fc7565b60005b83811015612ff6578181015183820152602001612fde565b83811115612a6f5750506000910152565b6000613011825190565b808452602084019350613028818560208601612fdb565b601f01601f19169290920192915050565b60208082528101610b998184613007565b604081016130588285612fc7565b610b996020830184612fc7565b80612e5d565b803561055b81613065565b6000806040838503121561308c5761308c600080fd5b60006130988585612f1b565b92505060206130a98582860161306b565b9150509250929050565b612e9b81612f01565b6020810161055b82846130b3565b6000806000606084860312156130e2576130e2600080fd5b60006130ee8686612f1b565b93505060206130ff86828701612f1b565b92505060406131108682870161306b565b9150509250925092565b8051604083019061312b84826130b3565b506020820151612a6f6020850182612fc7565b6040810161055b828461311a565b60008060008060008060a0878903121561316857613168600080fd5b60006131748989612f1b565b965050602061318589828a01612f1b565b955050604061319689828a0161306b565b94505060606131a789828a0161306b565b935050608087013567ffffffffffffffff811115612fac57612fac600080fd5b60ff8116612e9b565b6020810161055b82846131c7565b60006131ea83836130b3565b505060200190565b60006131fc825190565b80845260209384019383018060005b8381101561323057815161321f88826131de565b97506020830192505060010161320b565b509495945050505050565b60208082528101610b9981846131f2565b60006020828403121561326157613261600080fd5b60006124af8484612f1b565b634e487b7160e01b600052604160045260246000fd5b601f19601f830116810181811067ffffffffffffffff821117156132a9576132a961326d565b6040525050565b60006132bb60405190565b90506132c78282613283565b919050565b600067ffffffffffffffff8211156132e6576132e661326d565b601f19601f83011660200192915050565b82818337506000910152565b6000613316613311846132cc565b6132b0565b90508281526020810184848401111561333157613331600080fd5b61333c8482856132f7565b509392505050565b600082601f83011261335857613358600080fd5b81356124af848260208601613303565b6000806000806080858703121561338157613381600080fd5b600061338d8787612f1b565b945050602061339e87828801612f1b565b93505060406133af87828801612f1b565b925050606085013567ffffffffffffffff8111156133cf576133cf600080fd5b6133db87828801613344565b91505092959194509250565b62ffffff8116612e9b565b6020810161055b82846133e7565b60008060006060848603121561341857613418600080fd5b60006134248686612f1b565b93505060206134358682870161306b565b925050604061311086828701612f1b565b61ffff8116612e9b565b6020810161055b8284613446565b60ff8116612e5d565b803561055b8161345e565b600080600080600080600060e0888a03121561349057613490600080fd5b600061349c8a8a612f1b565b97505060206134ad8a828b01612f1b565b96505060406134be8a828b0161306b565b95505060606134cf8a828b0161306b565b94505060806134e08a828b01613467565b93505060a06134f18a828b0161306b565b92505060c06135028a828b0161306b565b91505092959891949750929550565b6000806040838503121561352757613527600080fd5b60006135338585612f1b565b92505060206130a985828601612f1b565b6000613550838361311a565b505060400190565b6000613562825190565b80845260209384019383018060005b838110156132305781516135858882613544565b975060208301925050600101613571565b60208082528101610b998184613558565b634e487b7160e01b600052601160045260246000fd5b6000828210156135cf576135cf6135a7565b500390565b60008160001904831182151516156135ee576135ee6135a7565b500290565b634e487b7160e01b600052601260045260246000fd5b600082613618576136186135f3565b500490565b60008219821115613630576136306135a7565b500190565b805160009061020084019061364a85826130b3565b50602083015161365d60208601826130b3565b5060408301516136706040860182612fc7565b5060608301516136836060860182612fc7565b5060808301516136966080860182612fc7565b5060a08301516136a960a0860182612fc7565b5060c08301516136bc60c0860182612fc7565b5060e08301516136cf60e0860182612fc7565b506101008301516136e4610100860182612fc7565b506101208301516136f9610120860182612fc7565b5061014083015161370e610140860182612fc7565b50610160830151613723610160860182612fc7565b50610180830151613738610180860182612fc7565b506101a083015161374d6101a0860182612fc7565b506101c08301516137626101c08601826133e7565b506101e08301518482036101e08601526118fa8282613007565b60208082528101610b998184613635565b6060810161379b8286612fc7565b6137a86020830185612fc7565b6124af6040830184612fc7565b634e487b7160e01b600052602260045260246000fd5b6002810460018216806137df57607f821691505b6020821081036137f1576137f16137b5565b50919050565b60008060006060848603121561380f5761380f600080fd5b600061381b8686612f1b565b935050602061382c86828701612f1b565b925050604061311086828701613467565b805160009061020084019061385285826130b3565b50602083015161386560208601826130b3565b50604083015161387860408601826130b3565b50606083015161388b60608601826130b3565b50608083015161389e6080860182612fc7565b5060a08301516138b160a0860182612fc7565b5060c08301516138c460c0860182612fc7565b5060e08301516138d760e0860182612fc7565b506101008301516138ec610100860182612fc7565b50610120830151613901610120860182612fc7565b50610140830151613916610140860182612fc7565b5061016083015161392b610160860182612fc7565b50610180830151613940610180860182612fc7565b506101a08301516139556101a08601826133e7565b506101c08301516137626101c08601826131c7565b60208082528101610b99818461383d565b634e487b7160e01b600052603260045260246000fd5b600061055b61399d8381565b90565b612e9b81613991565b608081016139b78287612fc7565b6139c460208301866139a0565b6139d160408301856139a0565b6118fa6060830184612fc7565b608081016139ec82876139a0565b6139f96020830186612fc7565b613a066040830185612fc7565b6118fa60608301846139a0565b80516000906101c0840190613a2885826130b3565b506020830151613a3b60208601826130b3565b506040830151613a4e60408601826130b3565b506060830151613a6160608601826130b3565b506080830151613a746080860182612fc7565b5060a0830151613a8760a0860182612fc7565b5060c0830151613a9a60c0860182612fc7565b5060e0830151613aad60e0860182612fc7565b50610100830151613ac2610100860182612fc7565b50610120830151613ad7610120860182612fc7565b50610140830151613aec610140860182612fc7565b50610160830151613b016101608601826133e7565b50610180830151613b166101808601826131c7565b506101a08301518482036101a08601526118fa8282613007565b60208082528101610b998184613a13565b60a08101613b4f82886130b3565b613b5c60208301876130b3565b613b6960408301866130b3565b613b7660608301856130b3565b8181036080830152612c4f8184613007565b62ffffff8116612e5d565b805161055b81613b88565b600060208284031215613bb357613bb3600080fd5b60006124af8484613b93565b60808101613bcd8287612fc7565b613bda60208301866131c7565b6139d16040830185612fc7565b60008060408385031215613bfd57613bfd600080fd5b6000613c098585612f1b565b92505060206130a985828601613467565b8051600090610140840190613c2f85826130b3565b506020830151613c4260208601826130b3565b506040830151613c556040860182612fc7565b506060830151613c686060860182612fc7565b506080830151613c7b6080860182612fc7565b5060a0830151613c8e60a0860182612fc7565b5060c0830151613ca160c0860182612fc7565b5060e0830151613cb460e0860182612fc7565b50610100830151613cc96101008601826131c7565b506101208301518482036101208601526118fa8282613007565b60208082528101610b998184613c1a565b6000613cfe825190565b613d0c818560208601612fdb565b9290920192915050565b6000610b998284613cf4565b6000613d30613311846132cc565b905082815260208101848484011115613d4b57613d4b600080fd5b61333c848285612fdb565b600082601f830112613d6a57613d6a600080fd5b81516124af848260208601613d22565b600060208284031215613d8f57613d8f600080fd5b815167ffffffffffffffff811115613da957613da9600080fd5b6124af84828501613d56565b6020808252810161055b81601f81527f5265656e7472616e637947756172643a207265656e7472616e742063616c6c00602082015260400190565b60408101613dfe82856130b3565b610b9960208301846130b3565b805161055b81613065565b600060208284031215613e2b57613e2b600080fd5b60006124af8484613e0b565b801515612e5d565b805161055b81613e37565b600060208284031215613e5f57613e5f600080fd5b60006124af8484613e3f565b805161055b81612f12565b600060208284031215613e8b57613e8b600080fd5b60006124af8484613e6b565b600061ffff821661055b565b612e9b81613e97565b60a08101613eba8287613ea3565b613ec760208301866130b3565b613ed46040830185612fc7565b613ee16060830184612fc7565b81810360808301526000815260208101610a12565b60608101613f0482866130b3565b6137a860208301856130b3565b60808101613f1f82876130b3565b613f2c60208301866130b3565b613f396040830185612fc7565b6118fa60608301846131c7565b60006000198203613f5957613f596135a7565b5060010190565b60c08101613f6e8289612fc7565b613f7b60208301886130b3565b613f8860408301876130b3565b613f956060830186612fc7565b613fa26080830185612fc7565b612c4f60a0830184612fc7565b61190160f01b81526002016000613fc68285612fc7565b602082019150613fd68284612fc7565b5060200192915050565b60408101613fee8285612fc7565b81810360208301526124af8184613007565b6000815461400d816137cb565b600182168015614024576001811461403957614069565b60ff1983168652811515820286019350614069565b60008581526020902060005b8381101561406157815488820152600190910190602001614045565b838801955050505b50505092915050565b6000610b998284614000565b60a0810161408c82886139a0565b6140996020830187612fc7565b6140a660408301866139a0565b6140b36060830185612fc7565b610a1260808301846130b356feddf252ad1be2c89b69c2b068fc378daa952ba7f163c4a11628f55a4df523b3efa26469706673582212200dcedbf787b5f784e50644bc82f31c23066389d8a394357e744e19c8a5a9fbb164736f6c634300080f0033",
  "linkReferences": {},
  "deployedLinkReferences": {}
}