{
  "_format": "hh-sol-artifact-1",
  "contractName": "FeeRegistry",
  "sourceName": "contracts/master/FeeRegistry.sol",
  "abi": [
    {
      "inputs": [
        {
          "internalType": "address",
          "name": "_master",
          "type": "address"
        }
      ],
      "stateMutability": "nonpayable",
      "type": "constructor"
    },
    {
      "anonymous": false,
      "inputs": [
        {
          "indexed": true,
          "internalType": "address",
          "name": "previousOwner",
          "type": "address"
        },
        {
          "indexed": true,
          "internalType": "address",
          "name": "newOwner",
          "type": "address"
        }
      ],
      "name": "OwnershipTransferred",
      "type": "event"
    },
    {
      "anonymous": false,
      "inputs": [
        {
          "indexed": true,
          "internalType": "address",
          "name": "sender",
          "type": "address"
        },
        {
          "indexed": true,
          "internalType": "bool",
          "name": "isWhitelisted",
          "type": "bool"
        }
      ],
      "name": "SetSenderWhitelisted",
      "type": "event"
    },
    {
      "inputs": [
        {
          "internalType": "address",
          "name": "sender",
          "type": "address"
        }
      ],
      "name": "isFeeSender",
      "outputs": [
        {
          "internalType": "bool",
          "name": "",
          "type": "bool"
        }
      ],
      "stateMutability": "view",
      "type": "function"
    },
    {
      "inputs": [
        {
          "internalType": "address",
          "name": "",
          "type": "address"
        }
      ],
      "name": "isSenderWhitelisted",
      "outputs": [
        {
          "internalType": "bool",
          "name": "",
          "type": "bool"
        }
      ],
      "stateMutability": "view",
      "type": "function"
    },
    {
      "inputs": [],
      "name": "master",
      "outputs": [
        {
          "internalType": "address",
          "name": "",
          "type": "address"
        }
      ],
      "stateMutability": "view",
      "type": "function"
    },
    {
      "inputs": [],
      "name": "owner",
      "outputs": [
        {
          "internalType": "address",
          "name": "",
          "type": "address"
        }
      ],
      "stateMutability": "view",
      "type": "function"
    },
    {
      "inputs": [],
      "name": "renounceOwnership",
      "outputs": [],
      "stateMutability": "nonpayable",
      "type": "function"
    },
    {
      "inputs": [
        {
          "internalType": "address",
          "name": "sender",
          "type": "address"
        },
        {
          "internalType": "bool",
          "name": "isWhitelisted",
          "type": "bool"
        }
      ],
      "name": "setSenderWhitelisted",
      "outputs": [],
      "stateMutability": "nonpayable",
      "type": "function"
    },
    {
      "inputs": [
        {
          "internalType": "address",
          "name": "newOwner",
          "type": "address"
        }
      ],
      "name": "transferOwnership",
      "outputs": [],
      "stateMutability": "nonpayable",
      "type": "function"
    }
  ],
  "bytecode": "0x60a060405234801561001057600080fd5b506040516106e33803806106e383398101604081905261002f916100ce565b61003833610049565b6001600160a01b03166080526100f7565b600080546001600160a01b038381166001600160a01b0319831681178455604051919092169283917f8be0079c531659141344cd1fd0a4f28419497f9722a3daafe3b4186f6b6457e09190a35050565b60006001600160a01b0382165b92915050565b6100b581610099565b81146100c057600080fd5b50565b80516100a6816100ac565b6000602082840312156100e3576100e3600080fd5b60006100ef84846100c3565b949350505050565b6080516105cb6101186000396000818160f7015261029101526105cb6000f3fe608060405234801561001057600080fd5b506004361061007d5760003560e01c8063a79854bc1161005b578063a79854bc146100c2578063ee97f7f3146100f2578063f2fde38b14610119578063fe47d6e11461012c57600080fd5b8063531847f414610082578063715018a6146100975780638da5cb5b1461009f575b600080fd5b6100956100903660046103d9565b61013f565b005b61009561020a565b6000546001600160a01b03165b6040516100b99190610425565b60405180910390f35b6100e56100d0366004610433565b60016020526000908152604090205460ff1681565b6040516100b99190610464565b6100ac7f000000000000000000000000000000000000000000000000000000000000000081565b610095610127366004610433565b61021e565b6100e561013a366004610433565b610258565b61014761030d565b6001600160a01b0382166101765760405162461bcd60e51b815260040161016d9061049b565b60405180910390fd5b6001600160a01b03821660009081526001602052604090205481151560ff9091161515036101b65760405162461bcd60e51b815260040161016d906104cd565b6001600160a01b038216600081815260016020526040808220805460ff191685151590811790915590519092917f40c67e82f75d23c03a9fa9e732839880dfb47f0e2a4751003bef67f6af899ce391a35050565b61021261030d565b61021c6000610346565b565b61022661030d565b6001600160a01b03811661024c5760405162461bcd60e51b815260040161016d906104dd565b61025581610346565b50565b6001600160a01b03811660009081526001602052604081205460ff16806103075750604051635b16ebb760e01b81526001600160a01b037f00000000000000000000000000000000000000000000000000000000000000001690635b16ebb7906102c6908590600401610425565b602060405180830381865afa1580156102e3573d6000803e3d6000fd5b505050506040513d601f19601f820116820180604052508101906103079190610532565b92915050565b336103206000546001600160a01b031690565b6001600160a01b03161461021c5760405162461bcd60e51b815260040161016d90610585565b600080546001600160a01b038381166001600160a01b0319831681178455604051919092169283917f8be0079c531659141344cd1fd0a4f28419497f9722a3daafe3b4186f6b6457e09190a35050565b60006001600160a01b038216610307565b6103b081610396565b811461025557600080fd5b8035610307816103a7565b8015156103b0565b8035610307816103c6565b600080604083850312156103ef576103ef600080fd5b60006103fb85856103bb565b925050602061040c858286016103ce565b9150509250929050565b61041f81610396565b82525050565b602081016103078284610416565b60006020828403121561044857610448600080fd5b600061045484846103bb565b949350505050565b80151561041f565b60208101610307828461045c565b600f81526000602082016e496e76616c6964206164647265737360881b815291505b5060200190565b6020808252810161030781610472565b600b81526000602082016a105b1c9958591e481cd95d60aa1b81529150610494565b60208082528101610307816104ab565b6020808252810161030781602681527f4f776e61626c653a206e6577206f776e657220697320746865207a65726f206160208201526564647265737360d01b604082015260600190565b8051610307816103c6565b60006020828403121561054757610547600080fd5b60006104548484610527565b60208082527f4f776e61626c653a2063616c6c6572206973206e6f7420746865206f776e657291019081526000610494565b602080825281016103078161055356fea26469706673582212206fd3a8849bbcbee74ce841363f235c8dcf1d8499fe8ecb8c0c90987e3ab4252a64736f6c634300080f0033",
  "linkReferences": {},
  "deployedLinkReferences": {}
}