{
  "_format": "hh-sol-artifact-1",
  "contractName": "SyncSwapFeeManager",
  "sourceName": "contracts/master/SyncSwapFeeManager.sol",
  "abi": [
    {
      "inputs": [
        {
          "internalType": "address",
          "name": "_feeRecipient",
          "type": "address"
        }
      ],
      "stateMutability": "nonpayable",
      "type": "constructor"
    },
    {
      "anonymous": false,
      "inputs": [
        {
          "indexed": true,
          "internalType": "address",
          "name": "previousOwner",
          "type": "address"
        },
        {
          "indexed": true,
          "internalType": "address",
          "name": "newOwner",
          "type": "address"
        }
      ],
      "name": "OwnershipTransferred",
      "type": "event"
    },
    {
      "anonymous": false,
      "inputs": [
        {
          "indexed": true,
          "internalType": "uint16",
          "name": "poolType",
          "type": "uint16"
        },
        {
          "indexed": false,
          "internalType": "uint24",
          "name": "fee",
          "type": "uint24"
        }
      ],
      "name": "SetDefaultProtocolFee",
      "type": "event"
    },
    {
      "anonymous": false,
      "inputs": [
        {
          "indexed": true,
          "internalType": "uint16",
          "name": "poolType",
          "type": "uint16"
        },
        {
          "indexed": false,
          "internalType": "uint24",
          "name": "fee",
          "type": "uint24"
        }
      ],
      "name": "SetDefaultSwapFee",
      "type": "event"
    },
    {
      "anonymous": false,
      "inputs": [
        {
          "indexed": true,
          "internalType": "address",
          "name": "previousFeeRecipient",
          "type": "address"
        },
        {
          "indexed": true,
          "internalType": "address",
          "name": "newFeeRecipient",
          "type": "address"
        }
      ],
      "name": "SetFeeRecipient",
      "type": "event"
    },
    {
      "anonymous": false,
      "inputs": [
        {
          "indexed": true,
          "internalType": "address",
          "name": "pool",
          "type": "address"
        },
        {
          "indexed": false,
          "internalType": "uint24",
          "name": "fee",
          "type": "uint24"
        }
      ],
      "name": "SetPoolProtocolFee",
      "type": "event"
    },
    {
      "anonymous": false,
      "inputs": [
        {
          "indexed": true,
          "internalType": "address",
          "name": "tokenIn",
          "type": "address"
        },
        {
          "indexed": true,
          "internalType": "address",
          "name": "tokenOut",
          "type": "address"
        },
        {
          "indexed": false,
          "internalType": "uint24",
          "name": "fee",
          "type": "uint24"
        }
      ],
      "name": "SetTokenSwapFee",
      "type": "event"
    },
    {
      "inputs": [
        {
          "internalType": "uint16",
          "name": "",
          "type": "uint16"
        }
      ],
      "name": "defaultProtocolFee",
      "outputs": [
        {
          "internalType": "uint24",
          "name": "",
          "type": "uint24"
        }
      ],
      "stateMutability": "view",
      "type": "function"
    },
    {
      "inputs": [
        {
          "internalType": "uint16",
          "name": "",
          "type": "uint16"
        }
      ],
      "name": "defaultSwapFee",
      "outputs": [
        {
          "internalType": "uint24",
          "name": "",
          "type": "uint24"
        }
      ],
      "stateMutability": "view",
      "type": "function"
    },
    {
      "inputs": [],
      "name": "feeRecipient",
      "outputs": [
        {
          "internalType": "address",
          "name": "",
          "type": "address"
        }
      ],
      "stateMutability": "view",
      "type": "function"
    },
    {
      "inputs": [],
      "name": "getFeeRecipient",
      "outputs": [
        {
          "internalType": "address",
          "name": "",
          "type": "address"
        }
      ],
      "stateMutability": "view",
      "type": "function"
    },
    {
      "inputs": [
        {
          "internalType": "address",
          "name": "pool",
          "type": "address"
        }
      ],
      "name": "getProtocolFee",
      "outputs": [
        {
          "internalType": "uint24",
          "name": "fee",
          "type": "uint24"
        }
      ],
      "stateMutability": "view",
      "type": "function"
    },
    {
      "inputs": [
        {
          "internalType": "address",
          "name": "pool",
          "type": "address"
        },
        {
          "internalType": "address",
          "name": "",
          "type": "address"
        },
        {
          "internalType": "address",
          "name": "tokenIn",
          "type": "address"
        },
        {
          "internalType": "address",
          "name": "tokenOut",
          "type": "address"
        },
        {
          "internalType": "bytes",
          "name": "",
          "type": "bytes"
        }
      ],
      "name": "getSwapFee",
      "outputs": [
        {
          "internalType": "uint24",
          "name": "fee",
          "type": "uint24"
        }
      ],
      "stateMutability": "view",
      "type": "function"
    },
    {
      "inputs": [],
      "name": "owner",
      "outputs": [
        {
          "internalType": "address",
          "name": "",
          "type": "address"
        }
      ],
      "stateMutability": "view",
      "type": "function"
    },
    {
      "inputs": [
        {
          "internalType": "address",
          "name": "",
          "type": "address"
        }
      ],
      "name": "poolProtocolFee",
      "outputs": [
        {
          "internalType": "uint24",
          "name": "",
          "type": "uint24"
        }
      ],
      "stateMutability": "view",
      "type": "function"
    },
    {
      "inputs": [],
      "name": "renounceOwnership",
      "outputs": [],
      "stateMutability": "nonpayable",
      "type": "function"
    },
    {
      "inputs": [
        {
          "internalType": "uint16",
          "name": "poolType",
          "type": "uint16"
        },
        {
          "internalType": "uint24",
          "name": "fee",
          "type": "uint24"
        }
      ],
      "name": "setDefaultProtocolFee",
      "outputs": [],
      "stateMutability": "nonpayable",
      "type": "function"
    },
    {
      "inputs": [
        {
          "internalType": "uint16",
          "name": "poolType",
          "type": "uint16"
        },
        {
          "internalType": "uint24",
          "name": "fee",
          "type": "uint24"
        }
      ],
      "name": "setDefaultSwapFee",
      "outputs": [],
      "stateMutability": "nonpayable",
      "type": "function"
    },
    {
      "inputs": [
        {
          "internalType": "address",
          "name": "_feeRecipient",
          "type": "address"
        }
      ],
      "name": "setFeeRecipient",
      "outputs": [],
      "stateMutability": "nonpayable",
      "type": "function"
    },
    {
      "inputs": [
        {
          "internalType": "address",
          "name": "pool",
          "type": "address"
        },
        {
          "internalType": "uint24",
          "name": "fee",
          "type": "uint24"
        }
      ],
      "name": "setPoolProtocolFee",
      "outputs": [],
      "stateMutability": "nonpayable",
      "type": "function"
    },
    {
      "inputs": [
        {
          "internalType": "address",
          "name": "tokenIn",
          "type": "address"
        },
        {
          "internalType": "address",
          "name": "tokenOut",
          "type": "address"
        },
        {
          "internalType": "uint24",
          "name": "fee",
          "type": "uint24"
        }
      ],
      "name": "setTokenSwapFee",
      "outputs": [],
      "stateMutability": "nonpayable",
      "type": "function"
    },
    {
      "inputs": [
        {
          "internalType": "address",
          "name": "",
          "type": "address"
        },
        {
          "internalType": "address",
          "name": "",
          "type": "address"
        }
      ],
      "name": "tokenSwapFee",
      "outputs": [
        {
          "internalType": "uint24",
          "name": "",
          "type": "uint24"
        }
      ],
      "stateMutability": "view",
      "type": "function"
    },
    {
      "inputs": [
        {
          "internalType": "address",
          "name": "newOwner",
          "type": "address"
        }
      ],
      "name": "transferOwnership",
      "outputs": [],
      "stateMutability": "nonpayable",
      "type": "function"
    }
  ],
  "bytecode": "0x608060405234801561001057600080fd5b50604051610d81380380610d8183398101604081905261002f9161019f565b6100383361011a565b600580546001600160a01b039092166001600160a01b03199092169190911790557fcc69885fda6bcc1a4ace058b4a62bf5e179ea78fd58a1ccd71c22cc9b688792f805462ffffff1990811660c8179091557fa15bc60c955c405d20d9149c709e2460f1c2d9a497496a7f46004d1772c3054c8054821661c35090811790915560026000527fd9d16d34ffb15ba3a3d852f0d403e2ce1d691fb54de27ac87cd2f993f3ec330f80548316602817905560036020527fc3a24b0501bd2c13a7e57f2db4369ec4c223447539fc0724a9d55ac4a06ebd4d80549092161790556101c8565b600080546001600160a01b038381166001600160a01b0319831681178455604051919092169283917f8be0079c531659141344cd1fd0a4f28419497f9722a3daafe3b4186f6b6457e09190a35050565b60006001600160a01b0382165b92915050565b6101868161016a565b811461019157600080fd5b50565b80516101778161017d565b6000602082840312156101b4576101b4600080fd5b60006101c08484610194565b949350505050565b610baa806101d76000396000f3fe608060405234801561001057600080fd5b50600436106101005760003560e01c806353561915116100975780638da5cb5b116100665780638da5cb5b14610242578063d4de871c14610253578063e74b981b14610278578063f2fde38b1461028b57600080fd5b80635356191514610201578063546a3c9e146102145780635f137b3f14610227578063715018a61461023a57600080fd5b80634190a660116100d35780634190a660146101a85780634625a94d146101bd57806346904840146101d05780634ccb20c0146101f057600080fd5b80630a992e0c1461010557806313809b831461012e5780632fa5752014610153578063389feeab14610178575b600080fd5b610118610113366004610816565b61029e565b604051610125919061084c565b60405180910390f35b61011861013c366004610816565b60046020526000908152604090205462ffffff1681565b61011861016136600461086f565b60016020526000908152604090205462ffffff1681565b610118610186366004610890565b600260209081526000928352604080842090915290825290205462ffffff1681565b6101bb6101b63660046108e3565b610365565b005b6101186101cb366004610968565b6103fe565b6005546101e3906001600160a01b031681565b6040516101259190610a07565b6005546001600160a01b03166101e3565b6101bb61020f366004610a15565b6104dc565b6101bb610222366004610a37565b610574565b6101bb6102353660046108e3565b610628565b6101bb6106ab565b6000546001600160a01b03166101e3565b61011861026136600461086f565b60036020526000908152604090205462ffffff1681565b6101bb610286366004610816565b6106bf565b6101bb610299366004610816565b610723565b6001600160a01b03811660009081526004602052604081205462ffffff169081900361034a5760036000836001600160a01b031663b1dd61b66040518163ffffffff1660e01b8152600401602060405180830381865afa158015610306573d6000803e3d6000fd5b505050506040513d601f19601f8201168201806040525081019061032a9190610a92565b61ffff16815260208101919091526040016000205462ffffff1692915050565b62ffffff8181161461035c578061035f565b60005b92915050565b61036d61075d565b620186a062ffffff8216111561039e5760405162461bcd60e51b815260040161039590610ad8565b60405180910390fd5b61ffff821660008181526003602052604090819020805462ffffff191662ffffff8516179055517f61872494e8d71fce11c9bbe3dccd1397924c2286652fd1df919466e097a91c29906103f290849061084c565b60405180910390a25050565b6001600160a01b03808516600090815260026020908152604080832093871683529290529081205462ffffff16908190036104ba5760016000886001600160a01b031663b1dd61b66040518163ffffffff1660e01b8152600401602060405180830381865afa158015610475573d6000803e3d6000fd5b505050506040513d601f19601f820116820180604052508101906104999190610a92565b61ffff16815260208101919091526040016000205462ffffff1690506104d2565b62ffffff818116146104cc57806104cf565b60005b90505b9695505050505050565b6104e461075d565b62ffffff81811614806104ff5750620186a062ffffff821611155b61051b5760405162461bcd60e51b815260040161039590610ad8565b6001600160a01b03821660008181526004602052604090819020805462ffffff191662ffffff8516179055517fbe5efbf26461d15e902f8139b0c620e154419b084f850bfd44a5f47de8b4e936906103f290849061084c565b61057c61075d565b62ffffff8181161480610596575061271062ffffff821611155b6105b25760405162461bcd60e51b815260040161039590610ad8565b6001600160a01b0383811660008181526002602090815260408083209487168084529490915290819020805462ffffff191662ffffff8616179055517faea7118d3afc16a09b2f7431f1541737392de863febea6ad2a5688da86fb91f09061061b90859061084c565b60405180910390a3505050565b61063061075d565b61271062ffffff821611156106575760405162461bcd60e51b815260040161039590610ad8565b61ffff821660008181526001602052604090819020805462ffffff191662ffffff8516179055517f3720b8426e46454f51262d464ce706a163ff74ddb8fe1cc7793e246be2cfdd97906103f290849061084c565b6106b361075d565b6106bd6000610796565b565b6106c761075d565b6005546040516001600160a01b038084169216907fd9d6b85b6d670cd443496fc6d03390f739bbff47f96a8e33fb0cdd52ad26f5c290600090a3600580546001600160a01b0319166001600160a01b0392909216919091179055565b61072b61075d565b6001600160a01b0381166107515760405162461bcd60e51b815260040161039590610ae8565b61075a81610796565b50565b336107706000546001600160a01b031690565b6001600160a01b0316146106bd5760405162461bcd60e51b815260040161039590610b64565b600080546001600160a01b038381166001600160a01b0319831681178455604051919092169283917f8be0079c531659141344cd1fd0a4f28419497f9722a3daafe3b4186f6b6457e09190a35050565b60006001600160a01b03821661035f565b610800816107e6565b811461075a57600080fd5b803561035f816107f7565b60006020828403121561082b5761082b600080fd5b6000610837848461080b565b949350505050565b62ffffff81165b82525050565b6020810161035f828461083f565b61ffff8116610800565b803561035f8161085a565b60006020828403121561088457610884600080fd5b60006108378484610864565b600080604083850312156108a6576108a6600080fd5b60006108b2858561080b565b92505060206108c38582860161080b565b9150509250929050565b62ffffff8116610800565b803561035f816108cd565b600080604083850312156108f9576108f9600080fd5b60006109058585610864565b92505060206108c3858286016108d8565b60008083601f84011261092b5761092b600080fd5b50813567ffffffffffffffff81111561094657610946600080fd5b60208301915083600182028301111561096157610961600080fd5b9250929050565b60008060008060008060a0878903121561098457610984600080fd5b6000610990898961080b565b96505060206109a189828a0161080b565b95505060406109b289828a0161080b565b94505060606109c389828a0161080b565b935050608087013567ffffffffffffffff8111156109e3576109e3600080fd5b6109ef89828a01610916565b92509250509295509295509295565b610846816107e6565b6020810161035f82846109fe565b60008060408385031215610a2b57610a2b600080fd5b6000610905858561080b565b600080600060608486031215610a4f57610a4f600080fd5b6000610a5b868661080b565b9350506020610a6c8682870161080b565b9250506040610a7d868287016108d8565b9150509250925092565b805161035f8161085a565b600060208284031215610aa757610aa7600080fd5b60006108378484610a87565b600b81526000602082016a496e76616c69642066656560a81b815291505b5060200190565b6020808252810161035f81610ab3565b6020808252810161035f81602681527f4f776e61626c653a206e6577206f776e657220697320746865207a65726f206160208201526564647265737360d01b604082015260600190565b60208082527f4f776e61626c653a2063616c6c6572206973206e6f7420746865206f776e657291019081526000610ad1565b6020808252810161035f81610b3256fea2646970667358221220387201a32862b59f4547f32c2fbda75035877e087a7f527d7924e7615b3f58af64736f6c634300080f0033",
  "linkReferences": {},
  "deployedLinkReferences": {}
}