{
  "_format": "hh-sol-artifact-1",
  "contractName": "SyncSwapPoolMaster",
  "sourceName": "contracts/master/SyncSwapPoolMaster.sol",
  "abi": [
    {
      "inputs": [
        {
          "internalType": "address",
          "name": "_vault",
          "type": "address"
        },
        {
          "internalType": "address",
          "name": "_forwarderRegistry",
          "type": "address"
        },
        {
          "internalType": "address",
          "name": "_feeManager",
          "type": "address"
        }
      ],
      "stateMutability": "nonpayable",
      "type": "constructor"
    },
    {
      "inputs": [],
      "name": "NotWhitelistedFactory",
      "type": "error"
    },
    {
      "inputs": [],
      "name": "PoolAlreadyExists",
      "type": "error"
    },
    {
      "anonymous": false,
      "inputs": [
        {
          "indexed": true,
          "internalType": "address",
          "name": "previousOwner",
          "type": "address"
        },
        {
          "indexed": true,
          "internalType": "address",
          "name": "newOwner",
          "type": "address"
        }
      ],
      "name": "OwnershipTransferStarted",
      "type": "event"
    },
    {
      "anonymous": false,
      "inputs": [
        {
          "indexed": true,
          "internalType": "address",
          "name": "previousOwner",
          "type": "address"
        },
        {
          "indexed": true,
          "internalType": "address",
          "name": "newOwner",
          "type": "address"
        }
      ],
      "name": "OwnershipTransferred",
      "type": "event"
    },
    {
      "anonymous": false,
      "inputs": [
        {
          "indexed": true,
          "internalType": "address",
          "name": "factory",
          "type": "address"
        },
        {
          "indexed": true,
          "internalType": "address",
          "name": "pool",
          "type": "address"
        },
        {
          "indexed": true,
          "internalType": "uint16",
          "name": "poolType",
          "type": "uint16"
        },
        {
          "indexed": false,
          "internalType": "bytes",
          "name": "data",
          "type": "bytes"
        }
      ],
      "name": "RegisterPool",
      "type": "event"
    },
    {
      "anonymous": false,
      "inputs": [
        {
          "indexed": true,
          "internalType": "address",
          "name": "factory",
          "type": "address"
        },
        {
          "indexed": false,
          "internalType": "bool",
          "name": "whitelisted",
          "type": "bool"
        }
      ],
      "name": "SetFactoryWhitelisted",
      "type": "event"
    },
    {
      "anonymous": false,
      "inputs": [
        {
          "indexed": true,
          "internalType": "address",
          "name": "newFeeManager",
          "type": "address"
        }
      ],
      "name": "UpdateFeeManager",
      "type": "event"
    },
    {
      "anonymous": false,
      "inputs": [
        {
          "indexed": true,
          "internalType": "address",
          "name": "newForwarderRegistry",
          "type": "address"
        }
      ],
      "name": "UpdateForwarderRegistry",
      "type": "event"
    },
    {
      "inputs": [],
      "name": "acceptOwnership",
      "outputs": [],
      "stateMutability": "nonpayable",
      "type": "function"
    },
    {
      "inputs": [
        {
          "internalType": "address",
          "name": "factory",
          "type": "address"
        },
        {
          "internalType": "bytes",
          "name": "data",
          "type": "bytes"
        }
      ],
      "name": "createPool",
      "outputs": [
        {
          "internalType": "address",
          "name": "pool",
          "type": "address"
        }
      ],
      "stateMutability": "nonpayable",
      "type": "function"
    },
    {
      "inputs": [],
      "name": "feeManager",
      "outputs": [
        {
          "internalType": "address",
          "name": "",
          "type": "address"
        }
      ],
      "stateMutability": "view",
      "type": "function"
    },
    {
      "inputs": [],
      "name": "forwarderRegistry",
      "outputs": [
        {
          "internalType": "address",
          "name": "",
          "type": "address"
        }
      ],
      "stateMutability": "view",
      "type": "function"
    },
    {
      "inputs": [],
      "name": "getFeeRecipient",
      "outputs": [
        {
          "internalType": "address",
          "name": "recipient",
          "type": "address"
        }
      ],
      "stateMutability": "view",
      "type": "function"
    },
    {
      "inputs": [
        {
          "internalType": "bytes32",
          "name": "",
          "type": "bytes32"
        }
      ],
      "name": "getPool",
      "outputs": [
        {
          "internalType": "address",
          "name": "",
          "type": "address"
        }
      ],
      "stateMutability": "view",
      "type": "function"
    },
    {
      "inputs": [
        {
          "internalType": "address",
          "name": "pool",
          "type": "address"
        }
      ],
      "name": "getProtocolFee",
      "outputs": [
        {
          "internalType": "uint24",
          "name": "fee",
          "type": "uint24"
        }
      ],
      "stateMutability": "view",
      "type": "function"
    },
    {
      "inputs": [
        {
          "internalType": "address",
          "name": "pool",
          "type": "address"
        },
        {
          "internalType": "address",
          "name": "sender",
          "type": "address"
        },
        {
          "internalType": "address",
          "name": "tokenIn",
          "type": "address"
        },
        {
          "internalType": "address",
          "name": "tokenOut",
          "type": "address"
        },
        {
          "internalType": "bytes",
          "name": "data",
          "type": "bytes"
        }
      ],
      "name": "getSwapFee",
      "outputs": [
        {
          "internalType": "uint24",
          "name": "fee",
          "type": "uint24"
        }
      ],
      "stateMutability": "view",
      "type": "function"
    },
    {
      "inputs": [
        {
          "internalType": "address",
          "name": "",
          "type": "address"
        }
      ],
      "name": "isFactoryWhitelisted",
      "outputs": [
        {
          "internalType": "bool",
          "name": "",
          "type": "bool"
        }
      ],
      "stateMutability": "view",
      "type": "function"
    },
    {
      "inputs": [
        {
          "internalType": "address",
          "name": "forwarder",
          "type": "address"
        }
      ],
      "name": "isForwarder",
      "outputs": [
        {
          "internalType": "bool",
          "name": "",
          "type": "bool"
        }
      ],
      "stateMutability": "view",
      "type": "function"
    },
    {
      "inputs": [
        {
          "internalType": "address",
          "name": "",
          "type": "address"
        }
      ],
      "name": "isPool",
      "outputs": [
        {
          "internalType": "bool",
          "name": "",
          "type": "bool"
        }
      ],
      "stateMutability": "view",
      "type": "function"
    },
    {
      "inputs": [],
      "name": "owner",
      "outputs": [
        {
          "internalType": "address",
          "name": "",
          "type": "address"
        }
      ],
      "stateMutability": "view",
      "type": "function"
    },
    {
      "inputs": [],
      "name": "pendingOwner",
      "outputs": [
        {
          "internalType": "address",
          "name": "",
          "type": "address"
        }
      ],
      "stateMutability": "view",
      "type": "function"
    },
    {
      "inputs": [
        {
          "internalType": "uint256",
          "name": "",
          "type": "uint256"
        }
      ],
      "name": "pools",
      "outputs": [
        {
          "internalType": "address",
          "name": "",
          "type": "address"
        }
      ],
      "stateMutability": "view",
      "type": "function"
    },
    {
      "inputs": [],
      "name": "poolsLength",
      "outputs": [
        {
          "internalType": "uint256",
          "name": "",
          "type": "uint256"
        }
      ],
      "stateMutability": "view",
      "type": "function"
    },
    {
      "inputs": [
        {
          "internalType": "address",
          "name": "pool",
          "type": "address"
        },
        {
          "internalType": "uint16",
          "name": "poolType",
          "type": "uint16"
        },
        {
          "internalType": "bytes",
          "name": "data",
          "type": "bytes"
        }
      ],
      "name": "registerPool",
      "outputs": [],
      "stateMutability": "nonpayable",
      "type": "function"
    },
    {
      "inputs": [],
      "name": "renounceOwnership",
      "outputs": [],
      "stateMutability": "nonpayable",
      "type": "function"
    },
    {
      "inputs": [
        {
          "internalType": "address",
          "name": "factory",
          "type": "address"
        },
        {
          "internalType": "bool",
          "name": "whitelisted",
          "type": "bool"
        }
      ],
      "name": "setFactoryWhitelisted",
      "outputs": [],
      "stateMutability": "nonpayable",
      "type": "function"
    },
    {
      "inputs": [
        {
          "internalType": "address",
          "name": "newFeeManager",
          "type": "address"
        }
      ],
      "name": "setFeeManager",
      "outputs": [],
      "stateMutability": "nonpayable",
      "type": "function"
    },
    {
      "inputs": [
        {
          "internalType": "address",
          "name": "newForwarderRegistry",
          "type": "address"
        }
      ],
      "name": "setForwarderRegistry",
      "outputs": [],
      "stateMutability": "nonpayable",
      "type": "function"
    },
    {
      "inputs": [
        {
          "internalType": "address",
          "name": "newOwner",
          "type": "address"
        }
      ],
      "name": "transferOwnership",
      "outputs": [],
      "stateMutability": "nonpayable",
      "type": "function"
    },
    {
      "inputs": [],
      "name": "vault",
      "outputs": [
        {
          "internalType": "address",
          "name": "",
          "type": "address"
        }
      ],
      "stateMutability": "view",
      "type": "function"
    }
  ],
  "bytecode": "0x60a06040523480156200001157600080fd5b506040516200110138038062001101833981016040819052620000349162000127565b6200003f3362000076565b6001600160a01b03928316608052600280549284166001600160a01b0319938416179055600380549190931691161790556200017f565b600180546001600160a01b03191690556200009d81620000a0602090811b6200097517901c565b50565b600080546001600160a01b038381166001600160a01b0319831681178455604051919092169283917f8be0079c531659141344cd1fd0a4f28419497f9722a3daafe3b4186f6b6457e09190a35050565b60006001600160a01b0382165b92915050565b6200010e81620000f0565b81146200009d57600080fd5b8051620000fd8162000103565b600080600060608486031215620001415762000141600080fd5b60006200014f86866200011a565b935050602062000162868287016200011a565b925050604062000175868287016200011a565b9150509250925092565b608051610f666200019b600039600061031b0152610f666000f3fe608060405234801561001057600080fd5b50600436106101425760003560e01c806379ba5097116100b8578063d0fb02031161007c578063d0fb0203146102a3578063e30c3978146102b6578063f2fde38b146102c7578063f6c00927146102da578063faff4f0814610303578063fbfa77cf1461031657600080fd5b806379ba5097146102515780638da5cb5b146102595780639dd41df21461026a578063abcef5541461027d578063ac4afa381461029057600080fd5b80634625a94d1161010a5780634625a94d146101e5578063472d35b9146101f85780634ccb20c01461020b5780635b16ebb714610213578063715018a614610236578063784198d91461023e57600080fd5b80630a992e0c146101475780630e16943b146101705780632716ae66146101855780632b4c9f161461019557806343a0fcc4146101b5575b600080fd5b61015a610155366004610a4a565b61033d565b6040516101679190610a78565b60405180910390f35b61018361017e366004610a99565b6103b5565b005b6007546040516101679190610adc565b6002546101a8906001600160a01b031681565b6040516101679190610af3565b6101d86101c3366004610a4a565b60046020526000908152604090205460ff1681565b6040516101679190610b09565b61015a6101f3366004610b69565b61044c565b610183610206366004610a4a565b6104d3565b6101a8610525565b6101d8610221366004610a4a565b60056020526000908152604090205460ff1681565b610183610598565b61018361024c366004610c14565b6105ac565b610183610758565b6000546001600160a01b03166101a8565b6101a8610278366004610c82565b61079a565b6101d861028b366004610a4a565b610816565b6101a861029e366004610cef565b610888565b6003546101a8906001600160a01b031681565b6001546001600160a01b03166101a8565b6101836102d5366004610a4a565b6108b2565b6101a86102e8366004610cef565b6006602052600090815260409020546001600160a01b031681565b610183610311366004610a4a565b610923565b6101a87f000000000000000000000000000000000000000000000000000000000000000081565b6003546040516302a64b8360e21b81526000916001600160a01b031690630a992e0c9061036e908590600401610af3565b602060405180830381865afa15801561038b573d6000803e3d6000fd5b505050506040513d601f19601f820116820180604052508101906103af9190610d26565b92915050565b6103bd6109c5565b6001600160a01b0382166103ec5760405162461bcd60e51b81526004016103e390610d70565b60405180910390fd5b6001600160a01b03821660008181526004602052604090819020805460ff1916841515179055517f2c54fd9c1d7578da6d66f809aa31e327bc1a6cad6dc1d439f4b21adce023a15690610440908490610b09565b60405180910390a25050565b600354604051634625a94d60e01b81526000916001600160a01b031690634625a94d90610487908a908a908a908a908a908a90600401610daf565b602060405180830381865afa1580156104a4573d6000803e3d6000fd5b505050506040513d601f19601f820116820180604052508101906104c89190610d26565b979650505050505050565b6104db6109c5565b600380546001600160a01b0319166001600160a01b0383169081179091556040517f98a0dc993512fd2ddd1a4ee28a53d1275ec3c174565e996b03d4718909237bf890600090a250565b600354604080516301332c8360e61b815290516000926001600160a01b031691634ccb20c09160048083019260209291908290030181865afa15801561056f573d6000803e3d6000fd5b505050506040513d601f19601f820116820180604052508101906105939190610e0e565b905090565b6105a06109c5565b6105aa60006109fe565b565b3360009081526004602052604090205460ff166105dc576040516329951ebb60e21b815260040160405180910390fd5b6001600160a01b0384166105ef57600080fd5b6001600160a01b03841660009081526005602052604090205460ff161561062957604051630188c99160e11b815260040160405180910390fd5b600083838360405160200161064093929190610e39565b60408051601f198184030181529181528151602092830120600081815260069093529120549091506001600160a01b03161561068f57604051630188c99160e11b815260040160405180910390fd5b600081815260066020908152604080832080546001600160a01b038a166001600160a01b031991821681179092558185526005909352818420805460ff191660019081179091556007805491820181559094527fa66cc928b5edb82af9bd49922954155ab7b0942694bea4ce44661d9a8736c688909301805490921683179091555161ffff8616919033907f4318beca5ca4f759b99c1f5f581fa8255b077a82e4c07f17213c471af5a0f56a906107499088908890610e63565b60405180910390a45050505050565b3361076b6001546001600160a01b031690565b6001600160a01b0316146107915760405162461bcd60e51b81526004016103e390610e75565b6105aa336109fe565b6040516313b8683f60e01b81526000906001600160a01b038516906313b8683f906107cb9086908690600401610e63565b6020604051808303816000875af11580156107ea573d6000803e3d6000fd5b505050506040513d601f19601f8201168201806040525081019061080e9190610e0e565b949350505050565b600254604051632af3bd5560e21b81526000916001600160a01b03169063abcef55490610847908590600401610af3565b602060405180830381865afa158015610864573d6000803e3d6000fd5b505050506040513d601f19601f820116820180604052508101906103af9190610ecd565b6007818154811061089857600080fd5b6000918252602090912001546001600160a01b0316905081565b6108ba6109c5565b600180546001600160a01b0383166001600160a01b031990911681179091556108eb6000546001600160a01b031690565b6001600160a01b03167f38d16b8cac22d99fc7c124b9cd0de2d3fa1faef420bfe791d8c362d765e2270060405160405180910390a350565b61092b6109c5565b600280546001600160a01b0319166001600160a01b0383169081179091556040517f41e309325204d4979853ee58efce248d83b12200f22fe333be8e33bbf748a71b90600090a250565b600080546001600160a01b038381166001600160a01b0319831681178455604051919092169283917f8be0079c531659141344cd1fd0a4f28419497f9722a3daafe3b4186f6b6457e09190a35050565b336109d86000546001600160a01b031690565b6001600160a01b0316146105aa5760405162461bcd60e51b81526004016103e390610f20565b600180546001600160a01b0319169055610a1781610975565b50565b60006001600160a01b0382166103af565b610a3481610a1a565b8114610a1757600080fd5b80356103af81610a2b565b600060208284031215610a5f57610a5f600080fd5b600061080e8484610a3f565b62ffffff81165b82525050565b602081016103af8284610a6b565b801515610a34565b80356103af81610a86565b60008060408385031215610aaf57610aaf600080fd5b6000610abb8585610a3f565b9250506020610acc85828601610a8e565b9150509250929050565b80610a72565b602081016103af8284610ad6565b610a7281610a1a565b602081016103af8284610aea565b801515610a72565b602081016103af8284610b01565b60008083601f840112610b2c57610b2c600080fd5b50813567ffffffffffffffff811115610b4757610b47600080fd5b602083019150836001820283011115610b6257610b62600080fd5b9250929050565b60008060008060008060a08789031215610b8557610b85600080fd5b6000610b918989610a3f565b9650506020610ba289828a01610a3f565b9550506040610bb389828a01610a3f565b9450506060610bc489828a01610a3f565b935050608087013567ffffffffffffffff811115610be457610be4600080fd5b610bf089828a01610b17565b92509250509295509295509295565b61ffff8116610a34565b80356103af81610bff565b60008060008060608587031215610c2d57610c2d600080fd5b6000610c398787610a3f565b9450506020610c4a87828801610c09565b935050604085013567ffffffffffffffff811115610c6a57610c6a600080fd5b610c7687828801610b17565b95989497509550505050565b600080600060408486031215610c9a57610c9a600080fd5b6000610ca68686610a3f565b935050602084013567ffffffffffffffff811115610cc657610cc6600080fd5b610cd286828701610b17565b92509250509250925092565b80610a34565b80356103af81610cde565b600060208284031215610d0457610d04600080fd5b600061080e8484610ce4565b62ffffff8116610a34565b80516103af81610d10565b600060208284031215610d3b57610d3b600080fd5b600061080e8484610d1b565b600f81526000602082016e496e76616c696420666163746f727960881b815291505b5060200190565b602080825281016103af81610d47565b82818337506000910152565b8183526000602084019350610da2838584610d80565b5050601f01601f19160190565b60a08101610dbd8289610aea565b610dca6020830188610aea565b610dd76040830187610aea565b610de46060830186610aea565b8181036080830152610df7818486610d8c565b98975050505050505050565b80516103af81610a2b565b600060208284031215610e2357610e23600080fd5b600061080e8484610e03565b61ffff8116610a72565b60408101610e478286610e2f565b8181036020830152610e5a818486610d8c565b95945050505050565b6020808252810161080e818486610d8c565b602080825281016103af81602981527f4f776e61626c6532537465703a2063616c6c6572206973206e6f7420746865206020820152683732bb9037bbb732b960b91b604082015260600190565b80516103af81610a86565b600060208284031215610ee257610ee2600080fd5b600061080e8484610ec2565b60208082527f4f776e61626c653a2063616c6c6572206973206e6f7420746865206f776e657291019081526000610d69565b602080825281016103af81610eee56fea264697066735822122055fdd8a1c1c750e3cb161950ef5ba543eca3c17fd5081ef45a3c689aacd8f15664736f6c634300080f0033",
  "linkReferences": {},
  "deployedLinkReferences": {}
}