{
  "_format": "hh-sol-artifact-1",
  "contractName": "SyncSwapStablePool",
  "sourceName": "contracts/pool/stable/SyncSwapStablePool.sol",
  "abi": [
    {
      "inputs": [],
      "stateMutability": "nonpayable",
      "type": "constructor"
    },
    {
      "inputs": [],
      "name": "Expired",
      "type": "error"
    },
    {
      "inputs": [],
      "name": "InsufficientLiquidityMinted",
      "type": "error"
    },
    {
      "inputs": [],
      "name": "InvalidSignature",
      "type": "error"
    },
    {
      "inputs": [],
      "name": "Overflow",
      "type": "error"
    },
    {
      "anonymous": false,
      "inputs": [
        {
          "indexed": true,
          "internalType": "address",
          "name": "owner",
          "type": "address"
        },
        {
          "indexed": true,
          "internalType": "address",
          "name": "spender",
          "type": "address"
        },
        {
          "indexed": false,
          "internalType": "uint256",
          "name": "amount",
          "type": "uint256"
        }
      ],
      "name": "Approval",
      "type": "event"
    },
    {
      "anonymous": false,
      "inputs": [
        {
          "indexed": true,
          "internalType": "address",
          "name": "sender",
          "type": "address"
        },
        {
          "indexed": false,
          "internalType": "uint256",
          "name": "amount0",
          "type": "uint256"
        },
        {
          "indexed": false,
          "internalType": "uint256",
          "name": "amount1",
          "type": "uint256"
        },
        {
          "indexed": false,
          "internalType": "uint256",
          "name": "liquidity",
          "type": "uint256"
        },
        {
          "indexed": true,
          "internalType": "address",
          "name": "to",
          "type": "address"
        }
      ],
      "name": "Burn",
      "type": "event"
    },
    {
      "anonymous": false,
      "inputs": [
        {
          "indexed": true,
          "internalType": "address",
          "name": "sender",
          "type": "address"
        },
        {
          "indexed": false,
          "internalType": "uint256",
          "name": "amount0",
          "type": "uint256"
        },
        {
          "indexed": false,
          "internalType": "uint256",
          "name": "amount1",
          "type": "uint256"
        },
        {
          "indexed": false,
          "internalType": "uint256",
          "name": "liquidity",
          "type": "uint256"
        },
        {
          "indexed": true,
          "internalType": "address",
          "name": "to",
          "type": "address"
        }
      ],
      "name": "Mint",
      "type": "event"
    },
    {
      "anonymous": false,
      "inputs": [
        {
          "indexed": true,
          "internalType": "address",
          "name": "sender",
          "type": "address"
        },
        {
          "indexed": false,
          "internalType": "uint256",
          "name": "amount0In",
          "type": "uint256"
        },
        {
          "indexed": false,
          "internalType": "uint256",
          "name": "amount1In",
          "type": "uint256"
        },
        {
          "indexed": false,
          "internalType": "uint256",
          "name": "amount0Out",
          "type": "uint256"
        },
        {
          "indexed": false,
          "internalType": "uint256",
          "name": "amount1Out",
          "type": "uint256"
        },
        {
          "indexed": true,
          "internalType": "address",
          "name": "to",
          "type": "address"
        }
      ],
      "name": "Swap",
      "type": "event"
    },
    {
      "anonymous": false,
      "inputs": [
        {
          "indexed": false,
          "internalType": "uint256",
          "name": "reserve0",
          "type": "uint256"
        },
        {
          "indexed": false,
          "internalType": "uint256",
          "name": "reserve1",
          "type": "uint256"
        }
      ],
      "name": "Sync",
      "type": "event"
    },
    {
      "anonymous": false,
      "inputs": [
        {
          "indexed": true,
          "internalType": "address",
          "name": "from",
          "type": "address"
        },
        {
          "indexed": true,
          "internalType": "address",
          "name": "to",
          "type": "address"
        },
        {
          "indexed": false,
          "internalType": "uint256",
          "name": "amount",
          "type": "uint256"
        }
      ],
      "name": "Transfer",
      "type": "event"
    },
    {
      "inputs": [],
      "name": "DOMAIN_SEPARATOR",
      "outputs": [
        {
          "internalType": "bytes32",
          "name": "",
          "type": "bytes32"
        }
      ],
      "stateMutability": "view",
      "type": "function"
    },
    {
      "inputs": [
        {
          "internalType": "address",
          "name": "",
          "type": "address"
        },
        {
          "internalType": "address",
          "name": "",
          "type": "address"
        }
      ],
      "name": "allowance",
      "outputs": [
        {
          "internalType": "uint256",
          "name": "",
          "type": "uint256"
        }
      ],
      "stateMutability": "view",
      "type": "function"
    },
    {
      "inputs": [
        {
          "internalType": "address",
          "name": "_spender",
          "type": "address"
        },
        {
          "internalType": "uint256",
          "name": "_amount",
          "type": "uint256"
        }
      ],
      "name": "approve",
      "outputs": [
        {
          "internalType": "bool",
          "name": "",
          "type": "bool"
        }
      ],
      "stateMutability": "nonpayable",
      "type": "function"
    },
    {
      "inputs": [
        {
          "internalType": "address",
          "name": "",
          "type": "address"
        }
      ],
      "name": "balanceOf",
      "outputs": [
        {
          "internalType": "uint256",
          "name": "",
          "type": "uint256"
        }
      ],
      "stateMutability": "view",
      "type": "function"
    },
    {
      "inputs": [
        {
          "internalType": "bytes",
          "name": "_data",
          "type": "bytes"
        },
        {
          "internalType": "address",
          "name": "_sender",
          "type": "address"
        },
        {
          "internalType": "address",
          "name": "_callback",
          "type": "address"
        },
        {
          "internalType": "bytes",
          "name": "_callbackData",
          "type": "bytes"
        }
      ],
      "name": "burn",
      "outputs": [
        {
          "components": [
            {
              "internalType": "address",
              "name": "token",
              "type": "address"
            },
            {
              "internalType": "uint256",
              "name": "amount",
              "type": "uint256"
            }
          ],
          "internalType": "struct IPool.TokenAmount[]",
          "name": "_amounts",
          "type": "tuple[]"
        }
      ],
      "stateMutability": "nonpayable",
      "type": "function"
    },
    {
      "inputs": [
        {
          "internalType": "bytes",
          "name": "_data",
          "type": "bytes"
        },
        {
          "internalType": "address",
          "name": "_sender",
          "type": "address"
        },
        {
          "internalType": "address",
          "name": "_callback",
          "type": "address"
        },
        {
          "internalType": "bytes",
          "name": "_callbackData",
          "type": "bytes"
        }
      ],
      "name": "burnSingle",
      "outputs": [
        {
          "components": [
            {
              "internalType": "address",
              "name": "token",
              "type": "address"
            },
            {
              "internalType": "uint256",
              "name": "amount",
              "type": "uint256"
            }
          ],
          "internalType": "struct IPool.TokenAmount",
          "name": "_tokenAmount",
          "type": "tuple"
        }
      ],
      "stateMutability": "nonpayable",
      "type": "function"
    },
    {
      "inputs": [],
      "name": "decimals",
      "outputs": [
        {
          "internalType": "uint8",
          "name": "",
          "type": "uint8"
        }
      ],
      "stateMutability": "view",
      "type": "function"
    },
    {
      "inputs": [
        {
          "internalType": "address",
          "name": "_tokenOut",
          "type": "address"
        },
        {
          "internalType": "uint256",
          "name": "_amountOut",
          "type": "uint256"
        },
        {
          "internalType": "address",
          "name": "_sender",
          "type": "address"
        }
      ],
      "name": "getAmountIn",
      "outputs": [
        {
          "internalType": "uint256",
          "name": "_amountIn",
          "type": "uint256"
        }
      ],
      "stateMutability": "view",
      "type": "function"
    },
    {
      "inputs": [
        {
          "internalType": "address",
          "name": "_tokenIn",
          "type": "address"
        },
        {
          "internalType": "uint256",
          "name": "_amountIn",
          "type": "uint256"
        },
        {
          "internalType": "address",
          "name": "_sender",
          "type": "address"
        }
      ],
      "name": "getAmountOut",
      "outputs": [
        {
          "internalType": "uint256",
          "name": "_amountOut",
          "type": "uint256"
        }
      ],
      "stateMutability": "view",
      "type": "function"
    },
    {
      "inputs": [],
      "name": "getAssets",
      "outputs": [
        {
          "internalType": "address[]",
          "name": "assets",
          "type": "address[]"
        }
      ],
      "stateMutability": "view",
      "type": "function"
    },
    {
      "inputs": [],
      "name": "getProtocolFee",
      "outputs": [
        {
          "internalType": "uint24",
          "name": "_protocolFee",
          "type": "uint24"
        }
      ],
      "stateMutability": "view",
      "type": "function"
    },
    {
      "inputs": [],
      "name": "getReserves",
      "outputs": [
        {
          "internalType": "uint256",
          "name": "_reserve0",
          "type": "uint256"
        },
        {
          "internalType": "uint256",
          "name": "_reserve1",
          "type": "uint256"
        }
      ],
      "stateMutability": "view",
      "type": "function"
    },
    {
      "inputs": [
        {
          "internalType": "address",
          "name": "_sender",
          "type": "address"
        },
        {
          "internalType": "address",
          "name": "_tokenIn",
          "type": "address"
        },
        {
          "internalType": "address",
          "name": "_tokenOut",
          "type": "address"
        },
        {
          "internalType": "bytes",
          "name": "data",
          "type": "bytes"
        }
      ],
      "name": "getSwapFee",
      "outputs": [
        {
          "internalType": "uint24",
          "name": "_swapFee",
          "type": "uint24"
        }
      ],
      "stateMutability": "view",
      "type": "function"
    },
    {
      "inputs": [],
      "name": "invariantLast",
      "outputs": [
        {
          "internalType": "uint256",
          "name": "",
          "type": "uint256"
        }
      ],
      "stateMutability": "view",
      "type": "function"
    },
    {
      "inputs": [],
      "name": "master",
      "outputs": [
        {
          "internalType": "address",
          "name": "",
          "type": "address"
        }
      ],
      "stateMutability": "view",
      "type": "function"
    },
    {
      "inputs": [
        {
          "internalType": "bytes",
          "name": "_data",
          "type": "bytes"
        },
        {
          "internalType": "address",
          "name": "_sender",
          "type": "address"
        },
        {
          "internalType": "address",
          "name": "_callback",
          "type": "address"
        },
        {
          "internalType": "bytes",
          "name": "_callbackData",
          "type": "bytes"
        }
      ],
      "name": "mint",
      "outputs": [
        {
          "internalType": "uint256",
          "name": "",
          "type": "uint256"
        }
      ],
      "stateMutability": "nonpayable",
      "type": "function"
    },
    {
      "inputs": [],
      "name": "name",
      "outputs": [
        {
          "internalType": "string",
          "name": "",
          "type": "string"
        }
      ],
      "stateMutability": "view",
      "type": "function"
    },
    {
      "inputs": [
        {
          "internalType": "address",
          "name": "",
          "type": "address"
        }
      ],
      "name": "nonces",
      "outputs": [
        {
          "internalType": "uint256",
          "name": "",
          "type": "uint256"
        }
      ],
      "stateMutability": "view",
      "type": "function"
    },
    {
      "inputs": [
        {
          "internalType": "address",
          "name": "_owner",
          "type": "address"
        },
        {
          "internalType": "address",
          "name": "_spender",
          "type": "address"
        },
        {
          "internalType": "uint256",
          "name": "_amount",
          "type": "uint256"
        },
        {
          "internalType": "uint256",
          "name": "_deadline",
          "type": "uint256"
        },
        {
          "internalType": "uint8",
          "name": "_v",
          "type": "uint8"
        },
        {
          "internalType": "bytes32",
          "name": "_r",
          "type": "bytes32"
        },
        {
          "internalType": "bytes32",
          "name": "_s",
          "type": "bytes32"
        }
      ],
      "name": "permit",
      "outputs": [],
      "stateMutability": "nonpayable",
      "type": "function"
    },
    {
      "inputs": [
        {
          "internalType": "address",
          "name": "_owner",
          "type": "address"
        },
        {
          "internalType": "address",
          "name": "_spender",
          "type": "address"
        },
        {
          "internalType": "uint256",
          "name": "_amount",
          "type": "uint256"
        },
        {
          "internalType": "uint256",
          "name": "_deadline",
          "type": "uint256"
        },
        {
          "internalType": "bytes",
          "name": "_signature",
          "type": "bytes"
        }
      ],
      "name": "permit2",
      "outputs": [],
      "stateMutability": "nonpayable",
      "type": "function"
    },
    {
      "inputs": [],
      "name": "poolType",
      "outputs": [
        {
          "internalType": "uint16",
          "name": "",
          "type": "uint16"
        }
      ],
      "stateMutability": "view",
      "type": "function"
    },
    {
      "inputs": [],
      "name": "reserve0",
      "outputs": [
        {
          "internalType": "uint256",
          "name": "",
          "type": "uint256"
        }
      ],
      "stateMutability": "view",
      "type": "function"
    },
    {
      "inputs": [],
      "name": "reserve1",
      "outputs": [
        {
          "internalType": "uint256",
          "name": "",
          "type": "uint256"
        }
      ],
      "stateMutability": "view",
      "type": "function"
    },
    {
      "inputs": [
        {
          "internalType": "bytes4",
          "name": "interfaceID",
          "type": "bytes4"
        }
      ],
      "name": "supportsInterface",
      "outputs": [
        {
          "internalType": "bool",
          "name": "",
          "type": "bool"
        }
      ],
      "stateMutability": "pure",
      "type": "function"
    },
    {
      "inputs": [
        {
          "internalType": "bytes",
          "name": "_data",
          "type": "bytes"
        },
        {
          "internalType": "address",
          "name": "_sender",
          "type": "address"
        },
        {
          "internalType": "address",
          "name": "_callback",
          "type": "address"
        },
        {
          "internalType": "bytes",
          "name": "_callbackData",
          "type": "bytes"
        }
      ],
      "name": "swap",
      "outputs": [
        {
          "components": [
            {
              "internalType": "address",
              "name": "token",
              "type": "address"
            },
            {
              "internalType": "uint256",
              "name": "amount",
              "type": "uint256"
            }
          ],
          "internalType": "struct IPool.TokenAmount",
          "name": "_tokenAmount",
          "type": "tuple"
        }
      ],
      "stateMutability": "nonpayable",
      "type": "function"
    },
    {
      "inputs": [],
      "name": "symbol",
      "outputs": [
        {
          "internalType": "string",
          "name": "",
          "type": "string"
        }
      ],
      "stateMutability": "view",
      "type": "function"
    },
    {
      "inputs": [],
      "name": "token0",
      "outputs": [
        {
          "internalType": "address",
          "name": "",
          "type": "address"
        }
      ],
      "stateMutability": "view",
      "type": "function"
    },
    {
      "inputs": [],
      "name": "token0PrecisionMultiplier",
      "outputs": [
        {
          "internalType": "uint256",
          "name": "",
          "type": "uint256"
        }
      ],
      "stateMutability": "view",
      "type": "function"
    },
    {
      "inputs": [],
      "name": "token1",
      "outputs": [
        {
          "internalType": "address",
          "name": "",
          "type": "address"
        }
      ],
      "stateMutability": "view",
      "type": "function"
    },
    {
      "inputs": [],
      "name": "token1PrecisionMultiplier",
      "outputs": [
        {
          "internalType": "uint256",
          "name": "",
          "type": "uint256"
        }
      ],
      "stateMutability": "view",
      "type": "function"
    },
    {
      "inputs": [],
      "name": "totalSupply",
      "outputs": [
        {
          "internalType": "uint256",
          "name": "",
          "type": "uint256"
        }
      ],
      "stateMutability": "view",
      "type": "function"
    },
    {
      "inputs": [
        {
          "internalType": "address",
          "name": "_to",
          "type": "address"
        },
        {
          "internalType": "uint256",
          "name": "_amount",
          "type": "uint256"
        }
      ],
      "name": "transfer",
      "outputs": [
        {
          "internalType": "bool",
          "name": "",
          "type": "bool"
        }
      ],
      "stateMutability": "nonpayable",
      "type": "function"
    },
    {
      "inputs": [
        {
          "internalType": "address",
          "name": "_from",
          "type": "address"
        },
        {
          "internalType": "address",
          "name": "_to",
          "type": "address"
        },
        {
          "internalType": "uint256",
          "name": "_amount",
          "type": "uint256"
        }
      ],
      "name": "transferFrom",
      "outputs": [
        {
          "internalType": "bool",
          "name": "",
          "type": "bool"
        }
      ],
      "stateMutability": "nonpayable",
      "type": "function"
    },
    {
      "inputs": [],
      "name": "vault",
      "outputs": [
        {
          "internalType": "address",
          "name": "",
          "type": "address"
        }
      ],
      "stateMutability": "view",
      "type": "function"
    }
  ],
  "bytecode": "0x61016060405260126080523480156200001757600080fd5b5060016008819055506000336001600160a01b031663d039f6226040518163ffffffff1660e01b8152600401600060405180830381865afa15801562000061573d6000803e3d6000fd5b505050506040513d6000823e601f3d908101601f191682016040526200008b9190810190620005a1565b905060008060008084806020019051810190620000a991906200062f565b93509350935093506000336001600160a01b031663ee97f7f36040518163ffffffff1660e01b8152600401602060405180830381865afa158015620000f2573d6000803e3d6000fd5b505050506040513d601f19601f820116820180604052508101906200011891906200069d565b9050806001600160a01b031660a0816001600160a01b031681525050806001600160a01b031663fbfa77cf6040518163ffffffff1660e01b8152600401602060405180830381865afa15801562000173573d6000803e3d6000fd5b505050506040513d601f19601f820116820180604052508101906200019991906200069d565b6001600160a01b0390811660c05261014083905261012084905284811661010052851660e052600080620001d987620002cc602090811b6200214817901c565b91509150600080620001f688620002cc60201b620021481760201c565b91509150838015620002055750815b1562000264576200025e838260405160200162000224929190620006e7565b6040516020818303038152906040528483604051602001620002489291906200073b565b60408051601f19818403018152919052620003a4565b620002bc565b620002bc60405180604001604052806012815260200171053796e635377617020537461626c65204c560741b81525060405180604001604052806004815260200163073534c560e41b815250620003a460201b60201c565b5050505050505050505062000a5b565b60408051600481526024810182526020810180516001600160e01b03166395d89b4160e01b1790529051600091606091839182916001600160a01b03871691620003169162000778565b600060405180830381855afa9150503d806000811462000353576040519150601f19603f3d011682016040523d82523d6000602084013e62000358565b606091505b5091509150811562000387576001818060200190518101906200037c9190620005a1565b935093505050915091565b600060405180602001604052806000815250935093505050915091565b6004620003b283826200088a565b506005620003c182826200088a565b5046600655620003d0620003d7565b6007555050565b60007f8b73c3c69bb8fe3d512ecc4cf759cc79239f7b179b0ffacaa9a75d522b39400f60046040516200040b9190620009d4565b6040519081900381206200044992917fc89efdaa54c0f20c7adf612882df0950f5a951637e0307cdcb4c672f298b8bc6904690309060200162000a05565b60405160208183030381529060405280519060200120905090565b634e487b7160e01b600052604160045260246000fd5b601f19601f83011681018181106001600160401b0382111715620004a257620004a262000464565b6040525050565b6000620004b560405190565b9050620004c382826200047a565b919050565b60006001600160401b03821115620004e457620004e462000464565b601f19601f83011660200192915050565b60005b8381101562000512578181015183820152602001620004f8565b8381111562000522576000848401525b50505050565b60006200053f6200053984620004c8565b620004a9565b9050828152602081018484840111156200055c576200055c600080fd5b62000569848285620004f5565b509392505050565b600082601f830112620005875762000587600080fd5b81516200059984826020860162000528565b949350505050565b600060208284031215620005b857620005b8600080fd5b81516001600160401b03811115620005d357620005d3600080fd5b620005998482850162000571565b60006001600160a01b0382165b92915050565b620005ff81620005e1565b81146200060b57600080fd5b50565b8051620005ee81620005f4565b80620005ff565b8051620005ee816200061b565b600080600080608085870312156200064a576200064a600080fd5b60006200065887876200060e565b94505060206200066b878288016200060e565b93505060406200067e8782880162000622565b9250506060620006918782880162000622565b91505092959194509250565b600060208284031215620006b457620006b4600080fd5b60006200059984846200060e565b6000620006cd825190565b620006dd818560208601620004f5565b9290920192915050565b68029bcb731a9bbb0b8160bd1b81526009016000620007078285620006c2565b602f60f81b815260010191506200071f8284620006c2565b69020537461626c65204c560b41b81529150600a820162000599565b6000620007498285620006c2565b602f60f81b81526001019150620007618284620006c2565b6402073534c560dc1b815291506005820162000599565b6000620007868284620006c2565b9392505050565b634e487b7160e01b600052602260045260246000fd5b600281046001821680620007b857607f821691505b602082108103620007cd57620007cd6200078d565b50919050565b6000620005ee620007e18381565b90565b620007ef83620007d3565b81546008840282811b60001990911b908116901990911617825550505050565b60006200081e818484620007e4565b505050565b818110156200084257620008396000826200080f565b60010162000823565b5050565b601f8211156200081e576000818152602090206020601f850104810160208510156200086f5750805b620008836020601f86010483018262000823565b5050505050565b81516001600160401b03811115620008a657620008a662000464565b620008b28254620007a3565b620008bf82828562000846565b6020601f831160018114620008f65760008415620008dd5750858201515b600019600886021c198116600286021786555062000952565b600085815260208120601f198616915b8281101562000928578885015182556020948501946001909201910162000906565b86831015620009455784890151600019601f89166008021c191682555b6001600288020188555050505b505050505050565b600081546200096981620007a3565b6001821680156200098357600181146200099957620009cb565b60ff1983168652811515820286019350620009cb565b60008581526020902060005b83811015620009c357815488820152600190910190602001620009a5565b838801955050505b50505092915050565b60006200078682846200095a565b620009ed81620007d3565b82525050565b80620009ed565b620009ed81620005e1565b60a0810162000a158288620009e2565b62000a246020830187620009f3565b62000a336040830186620009e2565b62000a426060830185620009f3565b62000a516080830184620009fa565b9695505050505050565b60805160a05160c05160e0516101005161012051610140516145dc62000c4c60003960008181610368015281816117d9015281816123dc0152818161297e01528181612a4401528181612a7901528181612ecb01528181612f6b0152612fa401526000818161046b01528181611779015281816123b901528181612950015281816129e801528181612ad501528181612ea801528181612f02015261300d015260008181610492015281816107630152818161079d01528181610da701528181610e0901528181610ecd01528181610f3701528181610f9301528181611332015281816114fd015281816115360152818161162501528181611a4401528181611dff01528181611feb015281816120fd015261234401526000818161029e01528181610742015281816107be01528181610de801528181610e4401528181610f5801528181611020015281816112de0152818161149b015281816114dc015281816116460152818161167f015281816119e801528181611a1e01528181611dc601528181611f8b015281816120a1015281816120d7015261227f01526000818161053e015281816122500152818161231701528181612b300152612bb70152600081816104f70152818161194801528181611aa8015281816124a101526125fc0152600061032301526145dc6000f3fe608060405234801561001057600080fd5b50600436106102065760003560e01c806370a082311161011a578063b1dd61b6116100ad578063dd62ed3e1161007c578063dd62ed3e146104c7578063ee97f7f3146104f2578063f66eab5b14610519578063fbfa77cf14610539578063ff9c8ac61461056057600080fd5b8063b1dd61b614610451578063baa8c7cb14610466578063d21220a71461048d578063d505accf146104b457600080fd5b806395d89b41116100e957806395d89b411461041b578063a287c79514610423578063a5a4103114610436578063a9059cbb1461043e57600080fd5b806370a08231146103a85780637132bb7f146103c85780637ecebe00146103db5780638b4c5470146103fb57600080fd5b806323b872dd1161019d5780633644e5151161016c5780633644e51514610352578063443cb4bc1461035a5780634e25dc47146103635780635a76f25e1461038a57806367e4ac2c1461039357600080fd5b806323b872dd146102d657806327b0bcea146102e95780632c0198cc14610309578063313ce5671461031e57600080fd5b80630902f1ac116101d95780630902f1ac14610272578063095ea7b3146102865780630dfe16811461029957806318160ddd146102cd57600080fd5b806301ffc9a71461020b57806303e7286a1461023457806306fdde031461025457806307f293f714610269575b600080fd5b61021e61021936600461333c565b610573565b60405161022b9190613367565b60405180910390f35b6102476102423660046133ec565b6105c5565b60405161022b9190613493565b61025c610a80565b60405161022b91906134ff565b610247600b5481565b600954600a5460405161022b929190613510565b61021e61029436600461353c565b610b0e565b6102c07f000000000000000000000000000000000000000000000000000000000000000081565b60405161022b9190613582565b61024760005481565b61021e6102e4366004613590565b610b24565b6102fc6102f73660046133ec565b610c04565b60405161022b9190613604565b61031c610317366004613612565b6111f8565b005b6103457f000000000000000000000000000000000000000000000000000000000000000081565b60405161022b9190613696565b61024761129d565b61024760095481565b6102477f000000000000000000000000000000000000000000000000000000000000000081565b610247600a5481565b61039b6112bc565b60405161022b9190613701565b6102476103b6366004613712565b60016020526000908152604090205481565b6102fc6103d63660046133ec565b611387565b6102476103e9366004613712565b60036020526000908152604090205481565b61040e61040936600461382e565b61192e565b60405161022b91906138b8565b61025c6119cf565b6102476104313660046138c6565b6119dc565b61040e611a8e565b61021e61044c36600461353c565b611b1e565b610459600281565b60405161022b9190613916565b6102477f000000000000000000000000000000000000000000000000000000000000000081565b6102c07f000000000000000000000000000000000000000000000000000000000000000081565b61031c6104c2366004613938565b611b93565b6102476104d53660046139d7565b600260209081526000928352604080842090915290825290205481565b6102c07f000000000000000000000000000000000000000000000000000000000000000081565b61052c6105273660046133ec565b611c88565b60405161022b9190613a5c565b6102c07f000000000000000000000000000000000000000000000000000000000000000081565b61024761056e3660046138c6565b612095565b60006001600160e01b031982166301ffc9a760e01b14806105a457506001600160e01b0319821663d505accf60e01b145b806105bf57506001600160e01b03198216630b00663360e21b145b92915050565b60006105cf612219565b61066660405180610200016040528060006001600160a01b0316815260200160006001600160a01b03168152602001600081526020016000815260200160008152602001600081526020016000815260200160008152602001600081526020016000815260200160008152602001600081526020016000815260200160008152602001600062ffffff168152602001606081525090565b61067287890189613712565b6001600160a01b03166020820152600954600a546060830152604082015261069861224b565b60a08301819052608083018290526106b091906123b5565b610140820152604081015160808201516106ca9190613a83565b60c0820152606081015160a08201516106e39190613a83565b60e08201526106f186612469565b95506000816040015160001461072957816040015182606001518360c0015161071a9190613a9a565b6107249190613acf565b61072c565b60005b60e08301519091508111801561079757610787887f00000000000000000000000000000000000000000000000000000000000000007f0000000000000000000000000000000000000000000000000000000000000000612527565b62ffffff166101c08401526107ee565b6107e2887f00000000000000000000000000000000000000000000000000000000000000007f0000000000000000000000000000000000000000000000000000000000000000612527565b62ffffff166101c08401525b610816836101c0015162ffffff168460c001518560e00151858760400151886060015161254c565b6101208501526101008401819052604084018051610835908390613ae3565b90525061012083015160608401805161084f908390613ae3565b9052506040830151606084015161086691906123b5565b610160840181905260009061087e90829081906125f0565b61018086018190529091506000036108bb576103e88461014001516108a39190613a83565b6101a08501526108b660006103e86127c9565b6108f3565b6101608401516101808501516101408601516108d8908390613a83565b6108e29190613a9a565b6108ec9190613acf565b6101a08501525b836101a0015160000361091957604051633489be7560e21b815260040160405180910390fd5b61092c8460200151856101a001516127c9565b6001600160a01b038816156109e0576001600160a01b0389168452604080516020601f89018190048102820181019092528781529088908890819084018382808284376000920191909152505050506101e0850152604051630204997360e41b81526001600160a01b038916906320499730906109ad908790600401613c42565b600060405180830381600087803b1580156109c757600080fd5b505af11580156109db573d6000803e3d6000fd5b505050505b6109f284608001518560a00151612826565b8015610a0257610140840151600b555b83602001516001600160a01b0316336001600160a01b03167fa8137fff86647d8a402117b9c5dbda627f721d3773338fb9678c83e54ed390808660c001518760e00151886101a00151604051610a5a93929190613c53565b60405180910390a35050506101a001519050610a766001600855565b9695505050505050565b60048054610a8d90613c91565b80601f0160208091040260200160405190810160405280929190818152602001828054610ab990613c91565b8015610b065780601f10610adb57610100808354040283529160200191610b06565b820191906000526020600020905b815481529060010190602001808311610ae957829003601f168201915b505050505081565b6000610b1b33848461286e565b50600192915050565b6001600160a01b03831660009081526002602090815260408083203384529091528120546000198114610b8057610b5b8382613a83565b6001600160a01b03861660009081526002602090815260408083203384529091529020555b6001600160a01b03851660009081526001602052604081208054859290610ba8908490613a83565b90915550506001600160a01b038085166000818152600160205260409081902080548701905551909187169060008051602061458783398151915290610bef908790613493565b60405180910390a360019150505b9392505050565b6040805180820190915260008082526020820152610c20612219565b610ccc60405180610200016040528060006001600160a01b0316815260200160006001600160a01b0316815260200160006001600160a01b0316815260200160006001600160a01b03168152602001600081526020016000815260200160008152602001600081526020016000815260200160008152602001600081526020016000815260200160008152602001600062ffffff168152602001600060ff168152602001606081525090565b610cd887890189613cbd565b60ff166101c08401526001600160a01b039081166020840152166060820152610cff61224b565b60a08301908152608083019182523060009081526001602052604081205460c085015291519051610d319190836125f0565b60e08401819052608084015160c08501519293509091610d519190613a9a565b610d5b9190613acf565b61010083015260e082015160a083015160c0840151610d7a9190613a9a565b610d849190613acf565b61012083015260c0820151610d9a9030906128d6565b610da387612469565b96507f00000000000000000000000000000000000000000000000000000000000000006001600160a01b031682606001516001600160a01b031603610f3157610e2d877f00000000000000000000000000000000000000000000000000000000000000007f0000000000000000000000000000000000000000000000000000000000000000612527565b62ffffff166101a083018190526001600160a01b037f00000000000000000000000000000000000000000000000000000000000000001660408401526101008301516080840151610ea1929190610e85908290613a83565b8561012001518660a00151610e9a9190613a83565b6001612935565b610180840152610160830181905261012083018051610ec1908390613ae3565b91508181525050610f027f00000000000000000000000000000000000000000000000000000000000000008360200151846101200151856101c00151612b0e565b6101208201516101408301819052600061010084015260a083018051610f29908390613a83565b905250611080565b610f7c877f00000000000000000000000000000000000000000000000000000000000000007f0000000000000000000000000000000000000000000000000000000000000000612527565b62ffffff166101a083018190526001600160a01b037f00000000000000000000000000000000000000000000000000000000000000001660408401526101208301516101008401516080850151610ff4939291610fd891613a83565b8561012001518660a00151610fed9190613a83565b6000612935565b610180840152610160830181905261010083018051611014908390613ae3565b915081815250506110557f00000000000000000000000000000000000000000000000000000000000000008360200151846101000151856101c00151612b0e565b6101008201516101408301819052600061012084015260808301805161107c908390613a83565b9052505b6001600160a01b03861615611134576001600160a01b0387168252604080516020601f87018190048102820181019092528581529086908690819084018382808284376000920191909152505050506101e0830152604051630eace54160e11b81526001600160a01b03871690631d59ca8290611101908590600401613e30565b600060405180830381600087803b15801561111b57600080fd5b505af115801561112f573d6000803e3d6000fd5b505050505b61114682608001518360a00151612826565b80156111625761115e82608001518360a001516123b5565b600b555b604051806040016040528083606001516001600160a01b03168152602001836101400151815250925081602001516001600160a01b0316336001600160a01b03167fd175a80c109434bb89948928ab2475a6647c94244cb70002197896423c8833638461010001518561012001518660c001516040516111e493929190613c53565b60405180910390a35050610a766001600855565b828042111561121a57604051630407b05b60e31b815260040160405180910390fd5b600061122888888888612c26565b905061126b888286868080601f016020809104026020016040519081016040528093929190818152602001838380828437600092019190915250612cdf92505050565b61128857604051638baa579f60e01b815260040160405180910390fd5b61129388888861286e565b5050505050505050565b600060065446146112b5576112b0612e0b565b905090565b5060075490565b60408051600280825260608083018452926020830190803683370190505090507f00000000000000000000000000000000000000000000000000000000000000008160008151811061131057611310613e41565b60200260200101906001600160a01b031690816001600160a01b0316815250507f00000000000000000000000000000000000000000000000000000000000000008160018151811061136457611364613e41565b60200260200101906001600160a01b031690816001600160a01b03168152505090565b60408051808201909152600080825260208201526113a3612219565b611441604051806101c0016040528060006001600160a01b0316815260200160006001600160a01b0316815260200160006001600160a01b0316815260200160006001600160a01b0316815260200160008152602001600081526020016000815260200160008152602001600081526020016000815260200160008152602001600062ffffff168152602001600060ff168152602001606081525090565b61144d87890189613cbd565b60ff166101808401526001600160a01b039081166020840152166040820152600954600a5460a0830152608082015261148461224b565b60e083015260c082015261149786612469565b95507f00000000000000000000000000000000000000000000000000000000000000006001600160a01b031681604001516001600160a01b03160361161f57611521867f00000000000000000000000000000000000000000000000000000000000000007f0000000000000000000000000000000000000000000000000000000000000000612527565b62ffffff166101608201526001600160a01b037f0000000000000000000000000000000000000000000000000000000000000000166060820152608081015160c082015161156f9190613a83565b8161010001818152505061159e81610160015162ffffff1682610100015183608001518460a001516001612935565b610140830152610120820181905260e0820180516115bd908390613a83565b90525060208101516101008201516101208301516040516001600160a01b039093169233927fd78ad95fa46c994b6551d0da85fc275fe613ce37657fb8d5e3d130840159d82292611612926000918291613e6f565b60405180910390a3611766565b61166a867f00000000000000000000000000000000000000000000000000000000000000007f0000000000000000000000000000000000000000000000000000000000000000612527565b62ffffff166101608201526001600160a01b037f000000000000000000000000000000000000000000000000000000000000000016606082015260a081015160e08201516116b89190613a83565b816101000181815250506116e781610160015162ffffff1682610100015183608001518460a001516000612935565b610140830152610120820181905260c082018051611706908390613a83565b90525060208101516101008201516101208301516040516001600160a01b039093169233927fd78ad95fa46c994b6551d0da85fc275fe613ce37657fb8d5e3d130840159d8229261175d9260009291908390613ea4565b60405180910390a35b6f02dc594291f166eb96db5587d1ceb4227f00000000000000000000000000000000000000000000000000000000000000008260c001516117a79190613a9a565b11156117c657604051631a93c68960e11b815260040160405180910390fd5b6f02dc594291f166eb96db5587d1ceb4227f00000000000000000000000000000000000000000000000000000000000000008260e001516118079190613a9a565b111561182657604051631a93c68960e11b815260040160405180910390fd5b61184481606001518260200151836101200151846101800151612b0e565b6001600160a01b038516156118f8576001600160a01b0386168152604080516020601f86018190048102820181019092528481529085908590819084018382808284376000920191909152505050506101a082015260405163608dbcbb60e01b81526001600160a01b0386169063608dbcbb906118c5908490600401613ff6565b600060405180830381600087803b1580156118df57600080fd5b505af11580156118f3573d6000803e3d6000fd5b505050505b61190a8160c001518260e00151612826565b60608101516001600160a01b0316825261012001516020820152610a766001600855565b604051634625a94d60e01b81526000906001600160a01b037f00000000000000000000000000000000000000000000000000000000000000001690634625a94d906119859030908990899089908990600401614007565b602060405180830381865afa1580156119a2573d6000803e3d6000fd5b505050506040513d601f19601f820116820180604052508101906119c69190614064565b95945050505050565b60058054610a8d90613c91565b600954600a54600091907f00000000000000000000000000000000000000000000000000000000000000006001600160a01b03908116908716148381611a42577f0000000000000000000000000000000000000000000000000000000000000000611a64565b7f00000000000000000000000000000000000000000000000000000000000000005b9050611a82611a7487838b612527565b62ffffff1688868686612e94565b98975050505050505050565b6040516302a64b8360e21b81526000906001600160a01b037f00000000000000000000000000000000000000000000000000000000000000001690630a992e0c90611add903090600401613582565b602060405180830381865afa158015611afa573d6000803e3d6000fd5b505050506040513d601f19601f820116820180604052508101906112b09190614064565b33600090815260016020526040812080548391908390611b3f908490613a83565b90915550506001600160a01b0383166000818152600160205260409081902080548501905551339060008051602061458783398151915290611b82908690613493565b60405180910390a350600192915050565b8380421115611bb557604051630407b05b60e31b815260040160405180910390fd5b6000611bc389898989612c26565b9050600060018287878760405160008152602001604052604051611bea9493929190614085565b6020604051602081039080840390855afa158015611c0c573d6000803e3d6000fd5b505050602060405103519050896001600160a01b0316816001600160a01b031614611c4a57604051638baa579f60e01b815260040160405180910390fd5b6001600160a01b038116611c7157604051638baa579f60e01b815260040160405180910390fd5b611c7c8a8a8a61286e565b50505050505050505050565b6060611c92612219565b611cfd60405180610140016040528060006001600160a01b0316815260200160006001600160a01b03168152602001600081526020016000815260200160008152602001600081526020016000815260200160008152602001600060ff168152602001606081525090565b611d09878901896140ad565b60ff166101008301526001600160a01b03166020820152611d2861224b565b606083019081526040808401928352306000908152600160205290812054608085015291519051611d5a9190836125f0565b60a08401819052604084015160808501519293509091611d7a9190613a9a565b611d849190613acf565b60c083015260a082015160608301516080840151611da29190613a9a565b611dac9190613acf565b60e08301526080820151611dc19030906128d6565b611dfa7f000000000000000000000000000000000000000000000000000000000000000083602001518460c00151856101000151612b0e565b611e337f000000000000000000000000000000000000000000000000000000000000000083602001518460e00151856101000151612b0e565b60c082015160408301805191909103905260e08201516060830180519190910390526001600160a01b03861615611f1157611e6d87612469565b6001600160a01b03168252604080516020601f870181900481028201810190925285815290869086908190840183828082843760009201919091525050505061012083015260405163109ea27d60e31b81526001600160a01b038716906384f513e890611ede9085906004016141a9565b600060405180830381600087803b158015611ef857600080fd5b505af1158015611f0c573d6000803e3d6000fd5b505050505b611f2382604001518360600151612826565b8015611f3f57611f3b826040015183606001516123b5565b600b555b6040805160028082526060820190925290816020015b6040805180820190915260008082526020820152815260200190600190039081611f5557905050925060405180604001604052807f00000000000000000000000000000000000000000000000000000000000000006001600160a01b031681526020018360c0015181525083600081518110611fd357611fd3613e41565b602002602001018190525060405180604001604052807f00000000000000000000000000000000000000000000000000000000000000006001600160a01b031681526020018360e001518152508360018151811061203357612033613e41565b602002602001018190525081602001516001600160a01b0316336001600160a01b03167fd175a80c109434bb89948928ab2475a6647c94244cb70002197896423c8833638460c001518560e0015186608001516040516111e493929190613c53565b600954600a54600091907f00000000000000000000000000000000000000000000000000000000000000006001600160a01b039081169087161483816120fb577f000000000000000000000000000000000000000000000000000000000000000061211d565b7f00000000000000000000000000000000000000000000000000000000000000005b905061213b61212d878a84612527565b62ffffff1688868686612935565b5098975050505050505050565b60408051600481526024810182526020810180516001600160e01b03166395d89b4160e01b1790529051600091606091839182916001600160a01b03871691612190916141dc565b600060405180830381855afa9150503d80600081146121cb576040519150601f19603f3d011682016040523d82523d6000602084013e6121d0565b606091505b509150915081156121fc576001818060200190518101906121f19190614240565b935093505050915091565b600060405180602001604052806000815250935093505050915091565b6002600854036122445760405162461bcd60e51b815260040161223b9061427b565b60405180910390fd5b6002600855565b6000807f00000000000000000000000000000000000000000000000000000000000000006001600160a01b031663f7888aec7f0000000000000000000000000000000000000000000000000000000000000000306040518363ffffffff1660e01b81526004016122bc9291906142b6565b602060405180830381865afa1580156122d9573d6000803e3d6000fd5b505050506040513d601f19601f820116820180604052508101906122fd91906142dc565b604051633de222bb60e21b81529092506001600160a01b037f0000000000000000000000000000000000000000000000000000000000000000169063f7888aec9061236e907f00000000000000000000000000000000000000000000000000000000000000009030906004016142b6565b602060405180830381865afa15801561238b573d6000803e3d6000fd5b505050506040513d601f19601f820116820180604052508101906123af91906142dc565b90509091565b60007f000000000000000000000000000000000000000000000000000000000000000083027f000000000000000000000000000000000000000000000000000000000000000083026f02dc594291f166eb96db5587d1ceb42282111561242e57604051631a93c68960e11b815260040160405180910390fd5b6f02dc594291f166eb96db5587d1ceb42281111561245f57604051631a93c68960e11b815260040160405180910390fd5b6119c6828261304c565b60006001600160a01b03821615612523576001600160a01b038216331461252357604051632af3bd5560e21b81526001600160a01b037f0000000000000000000000000000000000000000000000000000000000000000169063abcef554906124d6903390600401613582565b602060405180830381865afa1580156124f3573d6000803e3d6000fd5b505050506040513d601f19601f820116820180604052508101906125179190614310565b61252357506000919050565b5090565b60006125448484846040518060200160405280600081525061192e565b949350505050565b60008083600003612562575060009050806125e5565b84861061259c57612577620186a06002613a9a565b6125818688613a83565b61258b908a613a9a565b6125959190613acf565b90506125e5565b6000836125a98689613a9a565b6125b39190613acf565b90506125c3620186a06002613a9a565b6125cd828a613a83565b6125d7908b613a9a565b6125e19190613acf565b9250505b965096945050505050565b600080600054905060007f00000000000000000000000000000000000000000000000000000000000000006001600160a01b0316634ccb20c06040518163ffffffff1660e01b8152600401602060405180830381865afa158015612658573d6000803e3d6000fd5b505050506040513d601f19601f8201168201806040525081019061267c919061433c565b600b546001600160a01b0382161515945090915080156127bf5783156127b957846000036126b1576126ae87876123b5565b94505b808511156127b45760006126c3611a8e565b62ffffff1690506000816126d78489613a83565b6126e19087613a9a565b6126eb9190613a9a565b905060006126f98484613a9a565b8861270785620186a0613a83565b6127119190613a9a565b61271b9190613ae3565b905060006127298284613acf565b905080156127af5761273b86826127c9565b604051631087d04360e31b81526001600160a01b0387169063843e82189061276e90600290309086908a90600401614372565b600060405180830381600087803b15801561278857600080fd5b505af115801561279c573d6000803e3d6000fd5b5050505080876127ac9190613ae3565b96505b505050505b6127bf565b6000600b555b5050935093915050565b806000808282546127da9190613ae3565b90915550506001600160a01b038216600081815260016020526040808220805485019055516000805160206145878339815191529061281a908590613493565b60405180910390a35050565b600a81905560098290556040517fcf2aa50876cdfbb541206f89af0ee78d44a2abf8d328e37fa4917f982149848a906128629084908490613510565b60405180910390a15050565b6001600160a01b0380841660008181526002602090815260408083209487168084529490915290819020849055517f8c5be1e5ebec7d5bd14f71427d1e84f3dd0314c0f7b2291e5b200ac8c7c3b925906128c9908590613493565b60405180910390a3505050565b6001600160a01b038216600090815260016020526040812080548392906128fe908490613a83565b90915550506000805482900381556040516001600160a01b038416906000805160206145878339815191529061281a908590613493565b600080856000036129495760009150612b04565b60006129757f000000000000000000000000000000000000000000000000000000000000000087613a9a565b905060006129a37f000000000000000000000000000000000000000000000000000000000000000087613a9a565b9050620186a06129b38a8a613a9a565b6129bd9190613acf565b925060006129cb848a613a83565b905060006129d9848461304c565b90508615612a72576000612a0d7f000000000000000000000000000000000000000000000000000000000000000084613a9a565b612a179086613ae3565b90506000612a258284613118565b90506001612a338287613a83565b612a3d9190613a83565b9750612a697f000000000000000000000000000000000000000000000000000000000000000089613acf565b97505050612aff565b6000612a9e7f000000000000000000000000000000000000000000000000000000000000000084613a9a565b612aa89085613ae3565b90506000612ab68284613118565b90506001612ac48288613a83565b612ace9190613a83565b9750612afa7f000000000000000000000000000000000000000000000000000000000000000089613acf565b975050505b505050505b9550959350505050565b8060ff16600003612ba0576040516317d5759960e31b81526001600160a01b037f0000000000000000000000000000000000000000000000000000000000000000169063beabacc890612b69908790879087906004016143bc565b600060405180830381600087803b158015612b8357600080fd5b505af1158015612b97573d6000803e3d6000fd5b50505050612c20565b604051636cb568c160e01b81526001600160a01b037f00000000000000000000000000000000000000000000000000000000000000001690636cb568c190612bf29087908790879087906004016143d7565b600060405180830381600087803b158015612c0c57600080fd5b505af1158015611293573d6000803e3d6000fd5b50505050565b6000612c3061129d565b6001600160a01b038616600090815260036020526040812080547f6e71edae12b1b97f4d1f60370fef10105fa2faae0126114a169c64845d6126c992899289928992909190612c7e8361440c565b9190505587604051602001612c9896959493929190614426565b60405160208183030381529060405280519060200120604051602001612cbf929190614475565b604051602081830303815290604052805190602001209050949350505050565b600080612cec84846131c8565b9050846001600160a01b0316816001600160a01b031603612d20576001600160a01b03811615612d20576001915050610bfd565b600080866001600160a01b0316631626ba7e60e01b8787604051602401612d489291906144a6565b60408051601f198184030181529181526020820180516001600160e01b03166001600160e01b0319909416939093179092529051612d8691906141dc565b600060405180830381855afa9150503d8060008114612dc1576040519150601f19603f3d011682016040523d82523d6000602084013e612dc6565b606091505b5091509150818015612dd9575080516020145b8015612e0057508051630b135d3f60e11b90612dfe90830160209081019084016142dc565b145b979650505050505050565b60007f8b73c3c69bb8fe3d512ecc4cf759cc79239f7b179b0ffacaa9a75d522b39400f6004604051612e3d9190614538565b604051908190038120612e7992917fc89efdaa54c0f20c7adf612882df0950f5a951637e0307cdcb4c672f298b8bc69046903090602001614544565b60405160208183030381529060405280519060200120905090565b600084600003612ea6575060006119c6565b7f000000000000000000000000000000000000000000000000000000000000000084027f000000000000000000000000000000000000000000000000000000000000000084026000612ef8838361304c565b90508415612fa2577f00000000000000000000000000000000000000000000000000000000000000008802830360018111612f3a5760019450505050506119c6565b6000612f468284613118565b90508a620186a003848203620186a00281612f6357612f63613ab9565b0460010195507f00000000000000000000000000000000000000000000000000000000000000008681612f9857612f98613ab9565b0495505050613040565b7f00000000000000000000000000000000000000000000000000000000000000008802820360018111612fdc5760019450505050506119c6565b6000612fe88284613118565b90508a620186a003858203620186a0028161300557613005613ab9565b0460010195507f0000000000000000000000000000000000000000000000000000000000000000868161303a5761303a613ab9565b04955050505b50505095945050505050565b6000806130598385613ae3565b90508060000361306c5760009150613111565b600081815b61010081101561310c57600061309c61309561308e85868c61327b565b858a61327b565b6004900490565b90508293506130ec6130af60028361329a565b6130bb6107d08861329a565b6130c59190613ae3565b846130d160038561329a565b6130dd6107cf8861329a565b6130e79190613ae3565b6132ab565b92506130f883856132c0565b15613103575061310c565b50600101613071565b509250505b5092915050565b600080613130838461312b60028861329a565b61327b565b905061313f8184610fa06132e2565b905060006131516107d0850486613ae3565b9050600084935060005b6101008110156131be578491506131a68461317687886132f6565b6131809190613ae3565b878561318d60028a61329a565b6131979190613ae3565b6131a19190613a83565b61330a565b94506131b285836132c0565b6131be5760010161315b565b5050505092915050565b600081516041146131db575060006105bf565b60208201516040830151606084015160001a7f7fffffffffffffffffffffffffffffff5d576e7357a4501ddfe92f46681b20a082111561322157600093505050506105bf565b600186828585604051600081526020016040526040516132449493929190614085565b6020604051602081039080840390855afa158015613266573d6000803e3d6000fd5b5050604051601f190151979650505050505050565b82820281151584158583048514171661329357600080fd5b0492915050565b81810282810482146105bf57600080fd5b82820281151584820484141661329357600080fd5b6000818311156132d75750600181830311156105bf565b506001919003111590565b828202831584820484141761329357600080fd5b81810282158382048314176105bf57600080fd5b808204816105bf57600080fd5b6001600160e01b031981165b811461332e57600080fd5b50565b80356105bf81613317565b60006020828403121561335157613351600080fd5b60006125448484613331565b8015155b82525050565b602081016105bf828461335d565b60008083601f84011261338a5761338a600080fd5b50813567ffffffffffffffff8111156133a5576133a5600080fd5b6020830191508360018202830111156133c0576133c0600080fd5b9250929050565b60006001600160a01b0382166105bf565b613323816133c7565b80356105bf816133d8565b6000806000806000806080878903121561340857613408600080fd5b863567ffffffffffffffff81111561342257613422600080fd5b61342e89828a01613375565b9650965050602061344189828a016133e1565b945050604061345289828a016133e1565b935050606087013567ffffffffffffffff81111561347257613472600080fd5b61347e89828a01613375565b92509250509295509295509295565b80613361565b602081016105bf828461348d565b60005b838110156134bc5781810151838201526020016134a4565b83811115612c205750506000910152565b60006134d7825190565b8084526020840193506134ee8185602086016134a1565b601f01601f19169290920192915050565b60208082528101610bfd81846134cd565b6040810161351e828561348d565b610bfd602083018461348d565b80613323565b80356105bf8161352b565b6000806040838503121561355257613552600080fd5b600061355e85856133e1565b925050602061356f85828601613531565b9150509250929050565b613361816133c7565b602081016105bf8284613579565b6000806000606084860312156135a8576135a8600080fd5b60006135b486866133e1565b93505060206135c5868287016133e1565b92505060406135d686828701613531565b9150509250925092565b805160408301906135f18482613579565b506020820151612c20602085018261348d565b604081016105bf82846135e0565b60008060008060008060a0878903121561362e5761362e600080fd5b600061363a89896133e1565b965050602061364b89828a016133e1565b955050604061365c89828a01613531565b945050606061366d89828a01613531565b935050608087013567ffffffffffffffff81111561347257613472600080fd5b60ff8116613361565b602081016105bf828461368d565b60006136b08383613579565b505060200190565b60006136c2825190565b80845260209384019383018060005b838110156136f65781516136e588826136a4565b9750602083019250506001016136d1565b509495945050505050565b60208082528101610bfd81846136b8565b60006020828403121561372757613727600080fd5b600061254484846133e1565b634e487b7160e01b600052604160045260246000fd5b601f19601f830116810181811067ffffffffffffffff8211171561376f5761376f613733565b6040525050565b600061378160405190565b905061378d8282613749565b919050565b600067ffffffffffffffff8211156137ac576137ac613733565b601f19601f83011660200192915050565b82818337506000910152565b60006137dc6137d784613792565b613776565b9050828152602081018484840111156137f7576137f7600080fd5b6138028482856137bd565b509392505050565b600082601f83011261381e5761381e600080fd5b81356125448482602086016137c9565b6000806000806080858703121561384757613847600080fd5b600061385387876133e1565b9450506020613864878288016133e1565b9350506040613875878288016133e1565b925050606085013567ffffffffffffffff81111561389557613895600080fd5b6138a18782880161380a565b91505092959194509250565b62ffffff8116613361565b602081016105bf82846138ad565b6000806000606084860312156138de576138de600080fd5b60006138ea86866133e1565b93505060206138fb86828701613531565b92505060406135d6868287016133e1565b61ffff8116613361565b602081016105bf828461390c565b60ff8116613323565b80356105bf81613924565b600080600080600080600060e0888a03121561395657613956600080fd5b60006139628a8a6133e1565b97505060206139738a828b016133e1565b96505060406139848a828b01613531565b95505060606139958a828b01613531565b94505060806139a68a828b0161392d565b93505060a06139b78a828b01613531565b92505060c06139c88a828b01613531565b91505092959891949750929550565b600080604083850312156139ed576139ed600080fd5b60006139f985856133e1565b925050602061356f858286016133e1565b6000613a1683836135e0565b505060400190565b6000613a28825190565b80845260209384019383018060005b838110156136f6578151613a4b8882613a0a565b975060208301925050600101613a37565b60208082528101610bfd8184613a1e565b634e487b7160e01b600052601160045260246000fd5b600082821015613a9557613a95613a6d565b500390565b6000816000190483118215151615613ab457613ab4613a6d565b500290565b634e487b7160e01b600052601260045260246000fd5b600082613ade57613ade613ab9565b500490565b60008219821115613af657613af6613a6d565b500190565b8051600090610200840190613b108582613579565b506020830151613b236020860182613579565b506040830151613b36604086018261348d565b506060830151613b49606086018261348d565b506080830151613b5c608086018261348d565b5060a0830151613b6f60a086018261348d565b5060c0830151613b8260c086018261348d565b5060e0830151613b9560e086018261348d565b50610100830151613baa61010086018261348d565b50610120830151613bbf61012086018261348d565b50610140830151613bd461014086018261348d565b50610160830151613be961016086018261348d565b50610180830151613bfe61018086018261348d565b506101a0830151613c136101a086018261348d565b506101c0830151613c286101c08601826138ad565b506101e08301518482036101e08601526119c682826134cd565b60208082528101610bfd8184613afb565b60608101613c61828661348d565b613c6e602083018561348d565b612544604083018461348d565b634e487b7160e01b600052602260045260246000fd5b600281046001821680613ca557607f821691505b602082108103613cb757613cb7613c7b565b50919050565b600080600060608486031215613cd557613cd5600080fd5b6000613ce186866133e1565b9350506020613cf2868287016133e1565b92505060406135d68682870161392d565b8051600090610200840190613d188582613579565b506020830151613d2b6020860182613579565b506040830151613d3e6040860182613579565b506060830151613d516060860182613579565b506080830151613d64608086018261348d565b5060a0830151613d7760a086018261348d565b5060c0830151613d8a60c086018261348d565b5060e0830151613d9d60e086018261348d565b50610100830151613db261010086018261348d565b50610120830151613dc761012086018261348d565b50610140830151613ddc61014086018261348d565b50610160830151613df161016086018261348d565b50610180830151613e0661018086018261348d565b506101a0830151613e1b6101a08601826138ad565b506101c0830151613c286101c086018261368d565b60208082528101610bfd8184613d03565b634e487b7160e01b600052603260045260246000fd5b60006105bf613e638381565b90565b61336181613e57565b60808101613e7d828761348d565b613e8a6020830186613e66565b613e976040830185613e66565b6119c6606083018461348d565b60808101613eb28287613e66565b613ebf602083018661348d565b613ecc604083018561348d565b6119c66060830184613e66565b80516000906101c0840190613eee8582613579565b506020830151613f016020860182613579565b506040830151613f146040860182613579565b506060830151613f276060860182613579565b506080830151613f3a608086018261348d565b5060a0830151613f4d60a086018261348d565b5060c0830151613f6060c086018261348d565b5060e0830151613f7360e086018261348d565b50610100830151613f8861010086018261348d565b50610120830151613f9d61012086018261348d565b50610140830151613fb261014086018261348d565b50610160830151613fc76101608601826138ad565b50610180830151613fdc61018086018261368d565b506101a08301518482036101a08601526119c682826134cd565b60208082528101610bfd8184613ed9565b60a081016140158288613579565b6140226020830187613579565b61402f6040830186613579565b61403c6060830185613579565b8181036080830152612e0081846134cd565b62ffffff8116613323565b80516105bf8161404e565b60006020828403121561407957614079600080fd5b60006125448484614059565b60808101614093828761348d565b6140a0602083018661368d565b613e97604083018561348d565b600080604083850312156140c3576140c3600080fd5b60006140cf85856133e1565b925050602061356f8582860161392d565b80516000906101408401906140f58582613579565b5060208301516141086020860182613579565b50604083015161411b604086018261348d565b50606083015161412e606086018261348d565b506080830151614141608086018261348d565b5060a083015161415460a086018261348d565b5060c083015161416760c086018261348d565b5060e083015161417a60e086018261348d565b5061010083015161418f61010086018261368d565b506101208301518482036101208601526119c682826134cd565b60208082528101610bfd81846140e0565b60006141c4825190565b6141d28185602086016134a1565b9290920192915050565b6000610bfd82846141ba565b60006141f66137d784613792565b90508281526020810184848401111561421157614211600080fd5b6138028482856134a1565b600082601f83011261423057614230600080fd5b81516125448482602086016141e8565b60006020828403121561425557614255600080fd5b815167ffffffffffffffff81111561426f5761426f600080fd5b6125448482850161421c565b602080825281016105bf81601f81527f5265656e7472616e637947756172643a207265656e7472616e742063616c6c00602082015260400190565b604081016142c48285613579565b610bfd6020830184613579565b80516105bf8161352b565b6000602082840312156142f1576142f1600080fd5b600061254484846142d1565b801515613323565b80516105bf816142fd565b60006020828403121561432557614325600080fd5b60006125448484614305565b80516105bf816133d8565b60006020828403121561435157614351600080fd5b60006125448484614331565b600061ffff82166105bf565b6133618161435d565b60a081016143808287614369565b61438d6020830186613579565b61439a604083018561348d565b6143a7606083018461348d565b81810360808301526000815260208101610a76565b606081016143ca8286613579565b613c6e6020830185613579565b608081016143e58287613579565b6143f26020830186613579565b6143ff604083018561348d565b6119c6606083018461368d565b6000600019820361441f5761441f613a6d565b5060010190565b60c08101614434828961348d565b6144416020830188613579565b61444e6040830187613579565b61445b606083018661348d565b614468608083018561348d565b612e0060a083018461348d565b61190160f01b8152600201600061448c828561348d565b60208201915061449c828461348d565b5060200192915050565b604081016144b4828561348d565b818103602083015261254481846134cd565b600081546144d381613c91565b6001821680156144ea57600181146144ff5761452f565b60ff198316865281151582028601935061452f565b60008581526020902060005b838110156145275781548882015260019091019060200161450b565b838801955050505b50505092915050565b6000610bfd82846144c6565b60a081016145528288613e66565b61455f602083018761348d565b61456c6040830186613e66565b614579606083018561348d565b610a76608083018461357956feddf252ad1be2c89b69c2b068fc378daa952ba7f163c4a11628f55a4df523b3efa2646970667358221220202b8d6fbb1b9f6dafafaa19a9b0d63e9a65a76793563ca5b8b79218511e45fc64736f6c634300080f0033",
  "linkReferences": {},
  "deployedLinkReferences": {}
}